S0140000507275656261476C6F62616C2E7372656360
S11300000C94A1000C9446050C94BE000C9473054A
S11300100C94B4050C94BE000C94BE000C94BE0069
S11300200C94BE000C94BE000C94BE000C942205EB
S11300300C94BE000C94BE000C94BE000C94BE0044
S11300400C94BE000C94F9040C94BE000C94BE00F5
S11300500C94BE000C94A9040C94BE000C94BE0035
S11300600C94BE000C94BE000C94BE000C94BE0014
S11300700C94BE000C94BE000C94BE000C94BE0004
S11300800C94BE000C94BE000C94BE000C94BE00F4
S11300900C94BE000C94BE000C94BE000C94BE00E4
S11300A00C94BE000C94BE000C94BE000C94BE00D4
S11300B00C94BE000C94BE000C94BE000C94BE00C4
S11300C00C94BE000C94BE000C94BE000C94BE00B4
S11300D00C94BE000C94BE000C94BE000C94BE00A4
S11300E00C94BE00D601DA01DE01E201E601EA0168
S11300F0EE01F201F601FA0117021B021F022302AC
S113010027022B022F02330237023B0273027702CB
S11301107B027F02830287028B028F029302970283
S1130120B902BD02C102C502C902CD02D102D50283
S1130130D902DD020A06110629067D068D06B606D9
S1130140D40611241FBECFEFD1E2DEBFCDBF12E033
S1130150A0E0B2E0E6E7FEE002C005900D92A23016
S1130160B107D9F722E0A2E0B2E001C01D92A732A4
S1130170B207E1F70E94D8050C9439070C940000EB
S11301809C01EBE0F1E090819D7F9083209300023D
S11301902130310531F4E8E0F1E08081806880832A
S11301A007C0232B29F4E8E0F1E080818F77808376
S11301B0EBE0F1E08081826080838081877F8083AF
S11301C00895EBE0F1E080818860808380818D7FF9
S11301D0808382E0809300020895EBE0F1E0808167
S11301E08D7F808382E0809300020895EBE0F1E04C
S11301F080818F7E80838081846080838081806120
S113020080830895EBE0F1E080818F7E808380819C
S11302108B7F80838081806180830895EBE0F1E0AF
S113022080818F7E80830895EBE0F1E080818F7779
S11302308083808180628083808180688083089548
S1130240EBE0F1E080818F77808380818F7D8083F4
S11302508081806880830895EBE0F1E080818F776E
S11302608083089589B186FB882780F990E00895FA
S113027089B1817090E0089589B18695817090E08C
S1130280089589B18295817090E0089589B183FBC6
S1130290882780F990E0089589B182FB882780F946
S11302A090E00895EBE0F1E080818064808308951C
S11302B0EBE0F1E080818F7B80830895F89480ECFB
S11302C08093070184E0809368009FE390936D001E
S11302D08FEF84B995B990EA9AB99AEA9093690034
S11302E09FE09DBB80930A0178940895F89482E07E
S11302F084BD94E095BD80936E008CE987BD7894AD
S113030008951092850010928400089510926F0051
S1130310089582E080936F000895F894109280000D
S11303208DE0809381001092820010926F0085E826
S11303309EE1909389008093880078940895809139
S11303400202813009F0B3C080910302909104024B
S1130350019690930402809303028091030290918A
S11303600402853B910508F08CC085B1805885B99D
S11303701F9B46C0E091160285B1807885B98DEC4B
S1130380E89F812D1124869586958695880F982F50
S1130390990F990F890FE81B8E2F90E08A309105F1
S11303A068F5FC01EE58FF4F0C94330785B18F6359
S11303B085B9089585B1866085B9089585B18B6541
S11303C085B9089585B18F6485B9089585B1866628
S11303D085B9089585B18D6685B9089585B18D6710
S11303E085B9089585B1876085B9089585B18F670A
S11303F085B9089585B1876685B908952E9A0895BB
S11304008091160295B1907895B9EDEC8E9F812D6F
S11304101124E82FE695E695E6958E2F90E08A3034
S1130420910568F5FC01E458FF4F0C94330785B13E
S11304308F6385B9089585B1866085B9089585B1BE
S11304408B6585B9089585B18F6485B9089585B1A3
S1130450866685B9089585B18D6685B9089585B197
S11304608D6785B9089585B1876085B9089585B18B
S11304708F6785B9089585B1876685B908952E9AE1
S113048008958091030290910402843B910508F43D
S113049099C015B88091030290910402883C91059B
S11304A009F090C01092040210920302089585B1DD
S11304B0805885B91F9B41C08091160295B19078F0
S11304C095B9EDEC8E9F812D1124E82FE695E695E4
S11304D0E6958E2F90E08A30910568F5FC01EA5785
S11304E0FF4F0C94330785B18F6385B9089585B1A7
S11304F0866085B9089585B18B6585B9089585B100
S11305008F6485B9089585B1866685B9089585B1E6
S11305108D6685B9089585B18D6785B9089585B1CE
S1130520876085B9089585B18F6785B9089585B1C8
S1130530876685B908952E9A0895E091160285B1CB
S1130540807885B98DECE89F812D11248695869558
S11305508695880F982F990F990F890FE81B8E2F76
S113056090E08A30910568F5FC01E057FF4F0C9448
S1130570330785B18F6385B9089585B1866085B9E0
S1130580089585B18B6585B9089585B18F6485B962
S1130590089585B1866685B9089585B18D6685B956
S11305A0089585B18D6785B9089585B1876085B94A
S11305B0089585B18F6785B9089585B1876685B932
S11305C008952E9A0895E7E0F1E0808180648083A5
S11305D0EAE0F1E08081816080835698EBE0F1E00D
S11305E080818E7F80830895559A579AE9E6F0E0DA
S11305F0808180688083EB9A5F980895F8940E94C4
S1130600E3020E94F40278940895EBE0F1E0808123
S11306108E7F8083809119028130E1F4E8E0F1E07B
S113062080818F7B8083EBE0F1E080818160808337
S11306302FEF89E698E1215080409040E1F700C017
S113064000004E99FECFEBE0F1E080818E7F808345
S1130650109219020895EBE0F1E080818E7F80838F
S11306608091190281111DC0E8E0F1E0808180646D
S11306708083EBE0F1E08081816080832FEF89E665
S113068098E1215080409040E1F700C000004E996D
S1130690FECFEBE0F1E080818E7F808381E0809368
S11306A019020895EBE0F1E080818E7F8083A8E059
S11306B0B1E08C9180648C938081816080832FEF82
S11306C083ED90E3215080409040E1F700C00000AA
S11306D080818E7F808381E08093190208955F98E2
S11306E05D985F9A2FEF8DE399E42150804090400C
S11306F0E1F700C000005F9810921A0208958091FB
S11307001A02813019F45F985D985F9A0895809178
S11307101A02811103C05F985D9A5F9A08958091CF
S1130720050281110BC05D9903C010921A025F98F3
S11307305D9B04C081E080931A025F98809105025A
S1130740813031F480931A02109205020E947F03D3
S1130750089581E0809305020E9487030895F89428
S1130760E89AE9E6F0E0808182608083EA9A8081F9
S1130770806280837894089580E090E00E94C000B5
S11307802FEF83ED90E3215080409040E1F700C0CB
S113079000000E94ED001092010208950E940201DF
S11307A02FEF84E39CE0215080409040E1F700C0AB
S11307B000004999FECF0E940E0108950E94140181
S11307C02FEF89E698E1215080409040E1F700C086
S11307D000000E9420012FEF84E39CE02150804020
S11307E09040E1F700C000004C99FECF0E942C011C
S11307F0089580910B0290910C02A0910D02B0918A
S11308000E020596A11DB11D80930B0290930C025C
S1130810A0930D02B0930E02089560910B027091A3
S11308200C0280910D0290910E0228EC30E040E021
S113083050E00E941107653671058105910518F491
S11308400E94580108950E94520108958091070260
S113085090910802A0910902B0910A0240910B0202
S113086050910C0260910D0270910E02C296A11D6E
S1130870B11D84179507A607B70708F069C08091D2
S11308800B0290910C02A0910D02B0910E02809384
S1130890070290930802A0930902B0930A02809180
S11308A00002813029F058F1823009F44FC00895D4
S11308B080910102813061F480910602833029F431
S11308C080E090E00E94C00008950E94ED00089529
S11308D08091010281113CC080910102811104C008
S11308E081E08093010202C010920102809106020D
S11308F0833071F580E090E00E94C00008958091FB
S1130900010281110CC080910602833029F481E038
S113091090E00E94C00008950E94ED000895809127
S113092001028130A9F480910102811104C081E0A7
S11309308093010202C0109201028091060283306A
S113094039F480E090E00E94C00008958091010293
S113095008951F920F920FB60F9211242F933F9375
S11309604F935F936F937F938F939F93AF93BF93B3
S1130970EF93FF930E949F010E94F9038091150257
S1130980813011F40E940D040E94320190932002E0
S113099080931F020E9438019093240280932302C3
S11309A00E943C0190932202809321020E94410103
S11309B090931C0280931B020E94460190931E0296
S11309C080931D020E944C0190932602809325027D
S11309D0FF91EF91BF91AF919F918F917F916F9113
S11309E05F914F913F912F910F900FBE0F901F90E9
S11309F018951F920F920FB60F9211242F933F93C5
S1130A004F935F936F937F938F939F93AF93BF9312
S1130A10EF93FF9381E080931502809314020E9468
S1130A208601FF91EF91BF91AF919F918F917F913B
S1130A306F915F914F913F912F910F900FBE0F9047
S1130A401F9018951F920F920FB60F9211242F9397
S1130A503F934F935F936F937F938F939F93AF9342
S1130A60BF93EF93FF930E94DE06FF91EF91BF9136
S1130A70AF919F918F917F916F915F914F913F9132
S1130A802F910F900FBE0F901F9018951F920F92E9
S1130A900FB60F9211242F933F934F935F936F934D
S1130AA07F938F939F93AF93BF93EF93FF930E9492
S1130AB026048091110290911202019690931202E1
S1130AC080931102FF91EF91BF91AF919F918F910C
S1130AD07F916F915F914F913F912F910F900FBE36
S1130AE00F901F9018951F920F920FB60F9211241A
S1130AF02F933F934F935F936F937F938F939F9322
S1130B00AF93BF93EF93FF9380910F0290911002E4
S1130B1001969093100280930F0280910602833015
S1130B2029F40E94DA0684E080930602809106028A
S1130B30811103C081E08093060280910602863011
S1130B4011F410920602FF91EF91BF91AF919F9122
S1130B508F917F916F915F914F913F912F910F9062
S1130B600FBE0F901F9018951F920F920FB60F9201
S1130B7011242F933F934F935F936F937F938F939E
S1130B809F93AF93BF93EF93FF930E948F03FF91C3
S1130B90EF91BF91AF919F918F917F916F915F91F1
S1130BA04F913F912F910F900FBE0F901F9018956A
S1130BB02FEF81EE94E0215080409040E1F700C097
S1130BC000000E945E010E94AF030E9476010E9411
S1130BD08D010E94FE020E946F030E9452030E9434
S1130BE0CE030E94DE030E94BC03D3E0C1E00F2EBB
S1130BF0F6E0FF2EF02D05E012E0E09106028E2FC4
S1130C0090E08730910508F0D2C0FC01E656FF4F12
S1130C100C943307109214021092150210920202DF
S1130C20ECCF0E942B0381E090E00E94C0000E9460
S1130C3002012FEF83ED90E3215080409040E1F7D3
S1130C4000C000000E9405030E942B0310930602BB
S1130C50D4CF0E9420012FEF84E39CE021508040F8
S1130C609040E1F700C000000E944101892B89F700
S1130C700E942C010E94F6002FEF84E39CE0215097
S1130C8080409040E1F700C000000E943C01892BA5
S1130C9089F70E940E010E9414012FEF84E39CE067
S1130CA0215080409040E1F700C000000E944101C3
S1130CB0892B89F70E942C010E9402012FEF84E303
S1130CC09CE0215080409040E1F700C000000E9469
S1130CD03C01892B89F70E940E012FEF84E39CE0ED
S1130CE0215080409040E1F700C00000D0930602FC
S1130CF00E9481010E94890180CF0E94520180E0FC
S1130D0090E00E94C0002FEF83ED90E321508040DB
S1130D109040E1F700C0000070CF80910102813063
S1130D2039F4D093060280E090E00E94C00065CFC1
S1130D30109215020E94580180911402813011F41E
S1130D40C09313020E94E1002FEF84E39CE0215042
S1130D5080409040E1F700C000000E9420014C99BF
S1130D60FECF0E942C010093060247CF2FEF87EAA3
S1130D7091E6215080409040E1F700C000000E94BD
S1130D80A9032FEF83ED90E3215080409040E1F7D9
S1130D9000C0000080911302813019F4F092060221
S1130DA02CCFC093060229CFC093020226CF109203
S1130DB0060223CF8FE380936D000895809116027D
S1130DC08F5F8093160280910601809580FF05C095
S1130DD0EDE6F0E090819E7F908381FF05C0EDE613
S1130DE0F0E090819D7F908382FF05C0EDE6F0E006
S1130DF090819B7F908383FF05C0EDE6F0E09081B6
S1130E00977F908384FF05C0EDE6F0E090819F7E9C
S1130E10908385FF05C0EDE6F0E080818F7D8083BF
S1130E200895A1E21A2EAA1BBB1BFD010DC0AA1F27
S1130E30BB1FEE1FFF1FA217B307E407F50720F03F
S1130E40A21BB30BE40BF50B661F771F881F991FBA
S1130E501A9469F760957095809590959B01AC0103
S1130E60BD01CF010895EE0FFF1F0590F491E02D11
S1090E700994F894FFCF81
S1050E76020173
S9030000FC
