S0140000507275656261476C6F62616C2E7372656360
S11300000C947C000C9400040C9499000C9424042B
S11300100C943D040C9499000C9499000C94990050
S11300200C9499000C9499000C9499000C94DC03A2
S11300300C9499000C9499000C9499000C949900D8
S11300400C9499000C9499000C9499000C949900C8
S11300500C9499000C94AF030C9499000C9499009F
S11300600C9499000C9499000C9499000C949900A8
S11300700C9499000C9499000C9499000C94990098
S11300800C9499000C9499000C9499000C94990088
S11300900C9499000C9499000C9499000C94990078
S11300A00C9499000C9499000C9499000C94990068
S11300B00C9499000C9499000C9499000C94990058
S11300C00C9499000C9499000C9499000C94990048
S11300D00C9499000C9499000C9499000C94990038
S11300E00C949900550159015D0161016501690193
S11300F06D0171017501790111241FBECFEFD1E2A9
S1130100DEBFCDBF12E0A0E0B2E0EEE5FBE002C04E
S113011005900D92A230B107D9F722E0A2E0B2E037
S113012001C01D92A931B207E1F70E9461040C9449
S1130130AD050C9400009C01EBE0F1E090819D7F03
S11301409083209300022130310531F4E8E0F1E09E
S113015080818068808307C0232B29F4E8E0F1E0E4
S113016080818F778083EBE0F1E0808182608083FF
S11301708081877F8083089582E080930002EBE092
S1130180F1E080818860808380818F778083089507
S1130190EBE0F1E080818F7E8083808184608083C6
S11301A08081806180830895EBE0F1E080818F7E1F
S11301B0808380818B7F80838081806180830895A8
S11301C0EBE0F1E080818F7E80830895EBE0F1E045
S11301D08081806280838081806880830895EBE0E1
S11301E0F1E080818F7D80838081806880830895A1
S11301F0EBE0F1E080818F778083089589B1869563
S1130200817090E0089589B18295817090E008959D
S1130210EBE0F1E08081806480830895EBE0F1E01D
S113022080818F7B80830895F89480EC809307010C
S113023084E0809368009FE390936D008FEF84B90E
S113024095B990EA9AB99AEA909369009FE09DBBA8
S113025080930A0178940895F89482E084BD94E030
S113026095BD80936E008CE987BD78940895F894C9
S1130270109280008CE0809381001092820082E0D2
S113028080936F0082E19AE79093890080938800BD
S11302907894089525B1207825B98A30910568F5B8
S11302A0FC01EE58FF4F0C94A70585B18F6385B907
S11302B0089585B1866085B9089585B18B6585B942
S11302C0089585B18F6485B9089585B1866685B929
S11302D0089585B18D6685B9089585B18D6785B911
S11302E0089585B1876085B9089585B18F6785B90B
S11302F0089585B1876685B908952E9A08958091E9
S11303000202813009F044C08091030290910402FA
S113031001969093040280930302853B910520F596
S113032085B1805885B91F9B0DC0809114029DEC46
S1130330899F812D112486958695869590E00E944B
S11303404A0112C0809114029DEC899F912D1124C1
S1130350969596959695990F292F220F220F920F15
S1130360891B90E00E944A0180910302909104024B
S1130370843B910508F015B8809103029091040222
S1130380883C910549F510920402109203020895E5
S113039085B1805885B91F9B0DC0809114029DECD6
S11303A0899F812D112486958695869590E00E94DB
S11303B04A010895809114029DEC899F912D112486
S11303C0969596959695990F292F220F220F920FA5
S11303D0891B90E00E944A01089582E084BD93E065
S11303E095BD80936E009CE797BD85BB0895E7E0BB
S11303F0F1E0808180648083EAE0F1E080818160C3
S113040080835698EBE0F1E080818E7F80830895AD
S1130410559A579A5398E9E6F0E080818068808382
S1130420EB9AE39A5F9808955498E9E6F0E08081A6
S113043080628083EA9AE29A0895F8940E94ED011A
S11304400E94F7010E9408020E9414027894089501
S1130450EBE0F1E080818E7F8083809115029091A2
S113046016020197F1F4E8E0F1E080818F7B80834C
S1130470EBE0F1E08081816080832FEF89E698E1F1
S1130480215080409040E1F700C000004E99FECF1B
S1130490EBE0F1E080818E7F80831092160210924F
S11304A015020895EBE0F1E080818E7F80838091D6
S11304B0150290911602892BE9F4E8E0F1E08081BD
S11304C080648083EBE0F1E08081816080832FEFA2
S11304D089E698E1215080409040E1F700C0000097
S11304E089B180818E7F808381E090E090931602B1
S11304F0809315020895EBE0F1E080818E7F808384
S1130500A8E0B1E08C9180648C93808181608083C9
S11305102FEF83ED90E3215080409040E1F700C03D
S1130520000080818E7F808381E090E090931602AA
S11305308093150208955D98EBE0F1E08081806876
S113054080832FEF8DE399E4215080409040E1F7C0
S113055000C000005F9810921802109217021092C7
S113056006021092050208955D990AC010921802BD
S1130570109217025F9810920602109205020895D5
S11305805D9B0BC081E090E090931802809317026A
S11305905F98109206021092050208958091070256
S11305A0909108020596909308028093070208959B
S11305B0F894E89AE9E6F0E0808182608083EA9A20
S11305C08081806280837894089580E090E00E9426
S11305D09B0010921102089580910D0290910E02D9
S11305E0A0910F02B09110020596A11DB11D809338
S11305F00D0290930E02A0930F02B093100208957F
S113060060910D0270910E0280910F029091100280
S1130610089560910D0270910E0280910F029091E5
S1130620100228EE33E040E050E00E948505643873
S113063073408105910518F40E940E0108950E94EB
S11306400801089540910D0250910E0260910F022D
S1130650709110028091090290910A02A0910B02FC
S1130660B0910C02C296A11DB11D84179507A6076F
S1130670B70708F073C080910D0290910E02A0910B
S11306800F02B09110028093090290930A02A09382
S11306900B02B0930C0280910002813021F010F122
S11306A08230E9F158C080911102813061F4809167
S11306B00102833029F480E090E00E949B000895B9
S11306C00E94BC000895811149C081E08093110209
S11306D080910102833009F041C080E090E00E94E3
S11306E09B0008958091110281110CC08091010238
S11306F0833029F481E090E00E949B0008950E94D9
S1130700BC000895813051F51092110280910102CC
S1130710833021F580E090E00E949B000895809151
S1130720110281110CC080910102833029F481E00F
S113073090E00E949B0008950E94BC00089580915F
S11307400102833029F480E090E00E949B00089528
S11307500E94BC00089582E08093000208951F92D5
S11307600F920FB60F9211242F933F934F935F93E1
S11307706F937F938F939F93AF93BF93EF93FF9365
S11307800E947F010E94EC020E94CE02809113021B
S113079081110E940903FF91EF91BF91AF919F9145
S11307A08F917F916F915F914F913F912F910F9016
S11307B00FBE0F901F9018951F920F920FB60F92B5
S11307C011242F933F934F935F936F937F938F9352
S11307D09F93AF93BF93EF93FF930E945205FF91B2
S11307E0EF91BF91AF919F918F917F916F915F91A5
S11307F04F913F912F910F900FBE0F901F9018951E
S11308001F920F920FB60F9211242F933F934F9381
S11308105F936F937F938F939F93AF93BF93EF9364
S1130820FF930E942203FF91EF91BF91AF919F919B
S11308308F917F916F915F914F913F912F910F9085
S11308400FBE0F901F9018951F920F920FB60F9224
S113085011248F9380910102833021F484E08093EA
S1130860010205C0811103C081E0809301028F91D0
S11308700F900FBE0F901F9018951F920F920FB6F6
S11308800F9211242F933F934F935F936F937F9312
S11308908F939F93AF93BF93EF93FF930E94B40200
S11308A0FF91EF91BF91AF919F918F917F916F9144
S11308B05F914F913F912F910F900FBE0F901F901A
S11308C018950E9414010E94D8020E942C010E94D3
S11308D037010E941D020E949B020E947B020E941B
S11308E052020E94E502D3E004E0C1E012E08091EC
S11308F001028230D1F128F4882351F0813069F06B
S1130900F8CF833009F485C0843009F4A5C0F1CF51
S11309104A9BFECFC0930102EACF0E9452022FEFFE
S113092089E698E1215080409040E1F700C0000042
S113093081E090E00E949B002FEF83ED90E3215033
S113094080409040E1F700C000000E9428022FEF91
S113095083ED90E3215080409040E1F700C0000017
S11309600E94520210930102C2CF0E94EF002FEFA7
S113097086E791E0215080409040E1F700C00000FC
S11309800E940301892B89F70E94F8000E94C80085
S11309902FEF86E791E0215080409040E1F700C0BE
S11309A000000E94FE00892B89F70E94E0000E944B
S11309B0E6002FEF86E791E0215080409040E1F778
S11309C000C000000E940301892B89F70E94F800EF
S11309D00E94D4002FEF86E791E0215080409040A0
S11309E0E1F700C000000E94FE00892B89F70E94F5
S11309F0E0002FEF86E791E0215080409040E1F73E
S1130A0000C00000D09301020E9400036093120210
S1130A106ECF0E940801C0901202D12C20EDC21AA0
S1130A202AE8D20A0D2C000CEE08FF080E940003ED
S1130A30C616D706E806F90610F4C093130280E040
S1130A4090E00E949B0081E090E00E949B004A9B02
S1130A50FECF009301024BCF80911102813039F413
S1130A60D093010280E090E00E949B0040CF0E945E
S1130A700E010E94BC008FEF96E721E08150904068
S1130A802040E1F700C000000E94EF008FEF93EDDB
S1130A9020E3815090402040E1F700C000000E9414
S1130AA0F80025CF809114028F5F80931402809107
S1130AB00601809580FF05C0EDE6F0E090819E7F01
S1130AC0908381FF05C0EDE6F0E090819D7F9083E7
S1130AD082FF05C0EDE6F0E090819B7F908383FF69
S1130AE005C0EDE6F0E09081977F908384FF05C018
S1130AF0EDE6F0E090819F7E908385FF05C0EDE6F2
S1130B00F0E080818F7D80830895A1E21A2EAA1BD4
S1130B10BB1BFD010DC0AA1FBB1FEE1FFF1FA217A9
S1130B20B307E407F50720F0A21BB30BE40BF50BA6
S1130B30661F771F881F991F1A9469F7609570952F
S1130B40809590959B01AC01BD01CF010895EE0FF6
S1110B50FF1F0590F491E02D0994F894FFCF57
S1050B5E02018E
S9030000FC
