:100000000C949A000C94D8040C94B7000C94FC0443
:100010000C942D050C94B7000C94B7000C94B70009
:100020000C94B7000C94B7000C94B7000C94B40473
:100030000C94B7000C94B7000C94B7000C94B70064
:100040000C94B7000C948B040C94B7000C94B7007C
:100050000C94B7000C945D040C94B7000C94B7009A
:100060000C94B7000C94B7000C94B7000C94B70034
:100070000C94B7000C94B7000C94B7000C94B70024
:100080000C94B7000C94B7000C94B7000C94B70014
:100090000C94B7000C94B7000C94B7000C94B70004
:1000A0000C94B7000C94B7000C94B7000C94B700F4
:1000B0000C94B7000C94B7000C94B7000C94B700E4
:1000C0000C94B7000C94B7000C94B7000C94B700D4
:1000D0000C94B7000C94B7000C94B7000C94B700C4
:1000E0000C94B700AA01AE01B201B601BA01BE017B
:1000F000C201C601CA01CE01F301F701FB01FF01F4
:10010000030207020B020F02130217024B024F02F7
:10011000530257025B025F02630267026B026F02C7
:10012000940298029C02A002A402A802AC02B002AF
:10013000B402B80211241FBECFEFD1E2DEBFCDBFA3
:1001400012E0A0E0B2E0EAE7FDE002C005900D9207
:10015000A230B107D9F722E0A2E0B2E001C01D92BF
:10016000AA31B207E1F70E9451050C94BB060C942A
:1001700000009C01EBE0F1E090819D7F9083209353
:1001800000022130310531F4E8E0F1E0808180683F
:10019000808307C0232B29F4E8E0F1E080818F778A
:1001A0008083EBE0F1E08081826080838081877FC3
:1001B00080830895EBE0F1E0808188608083808116
:1001C0008D7F808382E0809300020895EBE0F1E070
:1001D00080818D7F808382E0809300020895EBE030
:1001E000F1E080818F7E8083808184608083808144
:1001F000806180830895EBE0F1E080818F7E8083D1
:1002000080818B7F80838081806180830895EBE093
:10021000F1E080818F7E80830895EBE0F1E08081C2
:10022000806280838081806880830895EBE0F1E0C4
:1002300080818F7D80838081806880830895EBE05A
:10024000F1E080818F778083089589B186958170F0
:1002500090E0089589B18295817090E00895EBE077
:10026000F1E08081806480830895EBE0F1E080819B
:100270008F7B80830895F89480EC8093070184E05D
:10028000809368009FE390936D008FEF84B995B9D8
:1002900090EA9AB99AEA909369009FE09DBB809397
:1002A0000A0178940895F89482E084BD94E095BDA5
:1002B00080936E008CE987BD789408951092850034
:1002C00010928400089510926F00089582E0809348
:1002D0006F000895F894109280008DE08093810063
:1002E0001092820010926F0085E89EE19093890041
:1002F000809388007894089580910202813009F0FB
:10030000AEC0809103029091040201969093040282
:1003100080930302853B910508F08FC085B180581A
:1003200085B91F9B41C080911502EDEC8E9F812DF8
:100330001124E82FE695E695E69585B1807885B994
:100340008E2F90E08A30910568F5FC01EE58FF4F42
:100350000C94B50685B18F6385B9089585B1866023
:1003600085B9089585B18B6585B9089585B18F6488
:1003700085B9089585B1866685B9089585B18D667C
:1003800085B9089585B18D6785B9089585B1876070
:1003900085B9089585B18F6785B9089585B1876658
:1003A00085B908952E9A0895909115028DEC989F25
:1003B000812D1124E82FE695E695E6958E2F880F7E
:1003C000E82FEE0FEE0F8E0FE92FE81B85B1807836
:1003D00085B98E2F90E08A30910568F5FC01E458CC
:1003E000FF4F0C94B50685B18F6385B9089585B12B
:1003F000866085B9089585B18B6585B9089585B105
:100400008F6485B9089585B1866685B9089585B1EB
:100410008D6685B9089585B18D6785B9089585B1D3
:10042000876085B9089585B18F6785B9089585B1CD
:10043000876685B908952E9A0895843B910508F43E
:100440009CC015B88091030290910402883C9105EC
:1004500009F093C01092040210920302089585B12E
:10046000805885B91F9B41C080911502EDEC8E9F8D
:10047000812D1124E82FE695E695E69585B18078E3
:1004800085B98E2F90E08A30910568F5FC01EA5716
:10049000FF4F0C94B50685B18F6385B9089585B17A
:1004A000866085B9089585B18B6585B9089585B154
:1004B0008F6485B9089585B1866685B9089585B13B
:1004C0008D6685B9089585B18D6785B9089585B123
:1004D000876085B9089585B18F6785B9089585B11D
:1004E000876685B908952E9A0895909115028DEC2E
:1004F000989F812D1124E82FE695E695E6958E2F9D
:10050000880FE82FEE0FEE0F8E0FE92FE81B85B155
:10051000807885B98E2F90E08A30910568F5FC01CE
:10052000E057FF4F0C94B50685B18F6385B90895E8
:1005300085B1866085B9089585B18B6585B90895C3
:1005400085B18F6485B9089585B1866685B90895AA
:1005500085B18D6685B9089585B18D6785B9089592
:1005600085B1876085B9089585B18F6785B908958C
:1005700085B1876685B908952E9A089582E084BD75
:1005800093E095BD80936E009CE797BD85BB089571
:10059000E7E0F1E0808180648083EAE0F1E080813F
:1005A000816080835698EBE0F1E080818E7F8083CC
:1005B0000895559A579A5398E9E6F0E0808180684B
:1005C0008083EB9AE39A5F9808955498E9E6F0E007
:1005D000808180628083EA9AE29A0895F8940E946A
:1005E000BE020E94C8020E94D9020E94E5027894CD
:1005F0000895EBE0F1E080818E7F80838091160288
:10060000909117020197F1F4E8E0F1E080818F7B8F
:100610008083EBE0F1E08081816080832FEF89E6C9
:1006200098E1215080409040E1F700C000004E99D1
:10063000FECFEBE0F1E080818E7F80831092170285
:10064000109216020895EBE0F1E080818E7F8083A6
:100650008091160290911702892BE9F4E8E0F1E00D
:10066000808180648083EBE0F1E080818160808321
:100670002FEF89E698E1215080409040E1F700C0DB
:10068000000089B180818E7F808381E090E090932B
:100690001702809316020895EBE0F1E080818E7FCF
:1006A0008083A8E0B1E08C9180648C93808181602C
:1006B00080832FEF83ED90E3215080409040E1F75D
:1006C00000C0000080818E7F808381E090E0909365
:1006D00017028093160208955D98EBE0F1E08081A7
:1006E000806880832FEF8DE399E421508040904013
:1006F000E1F700C000005F981092190210921802F2
:1007000010920602109205020895809118029091AD
:100710001902019711F45D985F9A08955D990AC0D6
:1007200010921902109218025F981092060210920D
:10073000050208955D9B0BC081E090E09093190243
:10074000809318025F981092060210920502089595
:100750008091070290910802059690930802809379
:1007600007020895F894E89AE9E6F0E08081826053
:100770008083EA9A8081806280837894089580E003
:1007800090E00E94B90010921202089580910E022A
:1007900090910F02A0911002B09111020596A11D37
:1007A000B11D80930E0290930F02A0931002B0939C
:1007B0001102089560910E0270910F028091100253
:1007C0009091110228EC30E040E050E00E94930646
:1007D000653671058105910518F40E94350108956B
:1007E0000E942F01089540910E0250910F026091D6
:1007F00010027091110280910A0290910B02A09157
:100800000C02B0910D02C296A11DB11D841795076F
:10081000A607B70708F050C080910E0290910F0212
:10082000A0911002B091110280930A0290930B02E2
:10083000A0930C02B0930D0280910002882301F175
:100840008130D1F580911202813061F480910902EA
:10085000833029F480E090E00E94B90008950E945E
:10086000E6000895811128C081E0809312028091F2
:100870000902833009F580E090E00E94B9000895F4
:100880008091120281110CC080910902833029F4F9
:1008900081E090E00E94B90008950E94E60008956A
:1008A000813051F41092120280910902833021F4B8
:1008B00080E090E00E94B90008951F920F920FB659
:1008C0000F9211242F933F934F935F936F937F93D6
:1008D0008F939F93AF93BF93EF93FF930E947C01FD
:1008E0000E94C6030E94A80380911402813011F473
:1008F0000E94DA03FF91EF91BF91AF919F918F9189
:100900007F916F915F914F913F912F910F900FBE0B
:100910000F901F9018951F920F920FB60F921124EF
:100920002F933F934F935F936F937F938F939F93F7
:10093000AF93BF93EF93FF9381E080931402809372
:1009400013020E946301FF91EF91BF91AF919F91BC
:100950008F917F916F915F914F913F912F910F9068
:100960000FBE0F901F9018951F920F920FB60F9207
:1009700011242F933F934F935F936F937F938F93A4
:100980009F93AF93BF93EF93FF930E946006FF91F5
:10099000EF91BF91AF919F918F917F916F915F91F7
:1009A0004F913F912F910F900FBE0F901F90189570
:1009B0001F920F920FB60F9211242F933F934F93D4
:1009C0005F936F937F938F939F93AF93BF93EF93B7
:1009D000FF930E94F303FF91EF91BF91AF919F911D
:1009E0008F917F916F915F914F913F912F910F90D8
:1009F0000FBE0F901F9018951F920F920FB60F9277
:100A000011242F933F934F935F936F937F938F9313
:100A10009F93AF93BF93EF93FF930E945C068091E7
:100A20000902833021F484E08093090205C081111A
:100A300003C081E080930902FF91EF91BF91AF91D4
:100A40009F918F917F916F915F914F913F912F91E6
:100A50000F900FBE0F901F9018951F920F920FB618
:100A60000F9211242F933F934F935F936F937F9334
:100A70008F939F93AF93BF93EF93FF930E948E0347
:100A8000FF91EF91BF91AF919F918F917F916F9166
:100A90005F914F913F912F910F900FBE0F901F903C
:100AA00018950E943B010E94B2030E9453010E94CC
:100AB0006A010E94EE020E946C030E9485030E945C
:100AC0004C030E9423030E94BF03D1E00F2EF5E0E8
:100AD000FF2EF02DC3E002E014E080910902833084
:100AE00009F489C028F4813051F0823081F1F7CFC8
:100AF000843009F48FC0853009F4B5C0F0CF0E946E
:100B000023032FEF89E698E1215080409040E1F7E0
:100B100000C0000081E090E00E94B9002FEF83ED5B
:100B200090E3215080409040E1F700C000000E9417
:100B3000F9022FEF83ED90E3215080409040E1F7E0
:100B400000C000000E94230300930902C6CF0E9448
:100B500016012FEF86E791E0215080409040E1F7A9
:100B600000C000000E942A01892B89F70E941F0102
:100B70000E94EF002FEF86E791E0215080409040E7
:100B8000E1F700C000000E942501892B89F70E942F
:100B900007010E940D012FEF86E791E02150804070
:100BA0009040E1F700C000000E942A01892B89F7DC
:100BB0000E941F010E94FB002FEF86E791E0215069
:100BC00080409040E1F700C000000E942501892B81
:100BD00089F70E9407012FEF86E791E021508040BE
:100BE0009040E1F700C00000C09309020E945E013E
:100BF0000E94660172CF0E942F0180E090E00E9467
:100C0000B90081E090E00E94B9004A9BFECF1093AA
:100C1000090263CF80911202813039F4C093090236
:100C200080E090E00E94B90058CF109214020E9418
:100C300035010E94DA002FEF86E791E021508040D5
:100C40009040E1F700C000000E9416012FEF83EDF5
:100C500090E3215080409040E1F700C000000E94E6
:100C60001F01F09209022FEF8BE792E9215080409B
:100C70009040E1F700C000000E9423032FEF83EDB6
:100C800090E3215080409040E1F700C000000E94B6
:100C9000F9022FEF83ED90E3215080409040E1F77F
:100CA00000C0000080911302813019F410920902F3
:100CB00014CFD093090211CF8FE380936D00089574
:100CC000809115028F5F80931502809106018095B7
:100CD00080FF05C0EDE6F0E090819E7F908381FF6C
:100CE00005C0EDE6F0E090819D7F908382FF05C016
:100CF000EDE6F0E090819B7F908383FF05C0EDE6F9
:100D0000F0E09081977F908384FF05C0EDE6F0E0EE
:100D100090819F7E908385FF05C0EDE6F0E08081A5
:100D20008F7D80830895A1E21A2EAA1BBB1BFD01B3
:100D30000DC0AA1FBB1FEE1FFF1FA217B307E407BA
:100D4000F50720F0A21BB30BE40BF50B661F771F12
:100D5000881F991F1A9469F76095709580959095F2
:100D60009B01AC01BD01CF010895EE0FFF1F05905F
:0A0D7000F491E02D0994F894FFCFF0
:020D7A00020075
:00000001FF
