S0140000507275656261476C6F62616C2E7372656360
S11300000C9483000C94FC030C94A0000C94240422
S11300100C94A0000C94A0000C94A0000C94A000DC
S11300200C94A0000C94A0000C94A0000C94D80391
S11300300C94A0000C94A0000C94A0000C94A000BC
S11300400C94A0000C94A6030C94A0000C94A000A3
S11300500C94A0000C947A030C94A0000C94A000BF
S11300600C94A0000C94A0000C94A0000C94A0008C
S11300700C94A0000C94A0000C94A0000C94A0007C
S11300800C94A0000C94A0000C94A0000C94A0006C
S11300900C94A0000C94A0000C94A0000C94A0005C
S11300A00C94A0000C94A0000C94A0000C94A0004C
S11300B00C94A0000C94A0000C94A0000C94A0003C
S11300C00C94A0000C94A0000C94A0000C94A0002C
S11300D00C94A0000C94A0000C94A0000C94A0001C
S11300E00C94A000AD01AF01B101B301B501B7019A
S11300F0B901BB01BD01BF018D049804BD041705FE
S113010023055E057E0511241FBECFEFD1E2DEBFBD
S1130110CDBF12E0A0E0B2E0E8EFFBE002C0059042
S11301200D92A430B107D9F722E0A4E0B2E001C0F7
S11301301D92A931B207E1F70E9460040C94FA05FC
S11301400C9400008F93F89482E084BD84E085BD14
S113015082E080936E008CE987BD78948F91209122
S11301600B012D7F20930B018093000281309105B8
S113017021F480910801806805C0892B29F48091BD
S113018008018F778093080180910B01826080932E
S11301900B0180910B01877F80930B010895EBE0A5
S11301A0F1E080818860808380818D7F808382E01C
S11301B0809300020895EBE0F1E080818D7F8083DD
S11301C082E0809300020895EBE0F1E080818F7E6D
S11301D0808308950E94E400EBE0F1E08081846074
S11301E0808380818061808308950E94E400EBE035
S11301F0F1E080818B7F808380818061808308959A
S1130200EBE0F1E080818F77808308950E94000104
S1130210EBE0F1E08081806280838081806880836C
S113022008950E940001EBE0F1E080818F7D8083DE
S1130230808180688083089589B18695817090E07B
S1130240089589B18295817090E00895EBE0F1E022
S11302508081806480830895EBE0F1E080818F7B6E
S113026080830895F894E7E0F1E0808180688083DA
S1130270808180648083E8E6F0E08081846080830C
S1130280209A219A229A239A249A259A269A279A7E
S11302902D9A2C9A2B9A2A9A299A289A579A559ADF
S11302A0E9E6F0E0808180628083808182608083DF
S11302B0E89AEA9AEAE0F1E08081816080838081B3
S11302C08260808380818460808380818860808371
S11302D0808180618083808180628083808180646A
S11302E0808380818068808378940895109285004B
S11302F010928400089510926F00089582E0809314
S11303006F000895F894E1E8F0E0808181608083D3
S1130310808184608083808188608083EFE6F0E060
S11303208081826080838DE89BE59093890080932F
S113033088007894089585B1807885B90895CF931D
S1130340DF93EC010E949B01CA30D105D8F4FE0171
S1130350EE58FF4F85B10C94F4058F6311C086608D
S11303600FC08B650DC08F640BC0866609C08D6697
S113037007C08D6705C0876003C08F6701C08766AB
S113038085B901C02E9ADF91CF910895809104021E
S1130390813021F580910502909106020196909397
S11303A00602809305028091050290910602853B26
S11303B09105A0F08091050290910602843B91057D
S11303C008F115B88091050290910602883C9105C8
S11303D0C9F41092060210920502089585B180585E
S11303E085B91F9906C0809114026AE00E94C6056F
S11303F006C0809114026AE00E94C605892F90E02D
S11304000C949F010895E7E0F1E08081806480838B
S1130410EAE0F1E08081816080835698EBE0F1E0CE
S113042080818E7F80830895559A579A5F980895A6
S1130430F8940E9403020E94140278940895EBE059
S1130440F1E080818E7F8083A8E0B1E08C918064AC
S11304508C938081816080832FEF83ED90E3215022
S113046080409040E1F700C0000080818E7F80834F
S113047081E08093170208955F985D985F9A0895CC
S113048080910B018E7F80930B0180911702813044
S1130490A9F4809108018F7B8093080180910B015E
S11304A0816080930B014E9BFECF4E99FECF8091CD
S11304B00B018E7F80930B01109217020895809197
S11304C00B018E7F80930B0180911702811116C05E
S11304D08091080180648093080180910B01816000
S11304E080930B014E9BFECF4E99FECF80910B0162
S11304F08E7F80930B0181E08093170208955F98AB
S11305005D985F9A08955F985D9A5F9A0895F8944C
S1130510E89AE9E6F0E0808182608083EA9A80814B
S1130520806280835098519854985398E7E0F1E0A2
S1130530808180648083808180688083EAE0F1E048
S1130540808184608083808180628083559A8081E9
S113055081608083808182608083808180618083E8
S1130560808180688083579A8081886080837894B2
S1130570089580E090E00E94AF002FEF89E698E1B3
S1130580215080409040E1F700C000000E94DB0051
S11305901092010208950E94F5002FEF81EE94E07D
S11305A0215080409040E1F700C000004999FECFFF
S11305B00C94E4000E9411012FEF81EE94E021508D
S11305C080409040E1F700C000004C99FECF0C94AD
S11305D0000180910C0290910D02A0910E02B09145
S11305E00F020596A11DB11D80930C0290930D027C
S11305F0A0930E02B0930F0280910C0290910D0211
S1130600A0910E02B0910F0240910802509109028C
S113061060910A0270910B02841B950BA60BB70B19
S1130620843F9140A105B10518F4F894E89802C0FC
S1130630F894E89A7894089560910C0270910D02F0
S113064080910E0290910F0228EC30E040E050E0DF
S11306500E94D205653671058105910510F40C944C
S11306602C010C94260180910C0290910D02A09112
S11306700E02B0910F02409108025091090260915C
S11306800A0270910B02841B950BA60BB70B853FD6
S11306909140A105B10568F180910002813099F47F
S11306A080910C0290910D02A0910E02B0910F0264
S11306B08093080290930902A0930A02B0930B025C
S11306C080E090E014C0811114C080910C029091DC
S11306D00D02A0910E02B0910F0280930802909334
S11306E00902A0930A02B0930B0281E090E00C94FB
S11306F0AF0008951F920F920FB60F9211242F93FB
S11307003F934F935F936F937F938F939F93AF9395
S1130710BF93EF93FF930E94C6010E94E902809168
S11307201302813011F40E941C03FF91EF91BF91D9
S1130730AF919F918F917F916F915F914F913F9175
S11307402F910F900FBE0F901F9018951F920F922C
S11307500FB60F9211242F933F934F935F936F9390
S11307607F938F939F93AF93BF93EF93FF93809166
S113077011028F5F80931102809111028A3039F443
S113078081E0809312020E947B0110921102FF917A
S1130790EF91BF91AF919F918F917F916F915F91F5
S11307A04F913F912F910F900FBE0F901F9018956E
S11307B01F920F920FB60F9211242F933F934F93D2
S11307C05F936F937F938F939F93AF93BF93EF93B5
S11307D0FF930E949305FF91EF91BF91AF919F9179
S11307E08F917F916F915F914F913F912F910F90D6
S11307F00FBE0F901F9018951F920F920FB60F9275
S113080011242F933F934F935F936F937F938F9311
S11308109F93AF93BF93EF93FF938091070283302D
S113082011F40E943303FF91EF91BF91AF919F9117
S11308308F917F916F915F914F913F912F910F9085
S11308400FBE0F901F9018951F920F920FB60F9224
S113085011242F933F934F935F936F937F938F93C1
S11308609F93AF93BF93EF93FF93809107028330DD
S113087029F40E948C0584E080930702809107028A
S1130880811107C080911402811103C081E080931B
S1130890070280910702863011F410920702FF913B
S11308A0EF91BF91AF919F918F917F916F915F91E4
S11308B04F913F912F910F900FBE0F901F9018955D
S11308C02FEF81EE94E0215080409040E1F700C08A
S11308D000000E9432010E9487020E94A2000E942E
S11308E082010E9418020E943C020E941F020E9480
S11308F0CB020E94DA020E94B902D3E0C1E016E002
S113090005E082E0F82EE0910702F0E0E730F1051F
S1130910D0F7E458FF4F0C94F40510921202109291
S1130920130210920402109214020E94B90288C0A9
S11309300E942C010E945F0281E090E00E94AF00BF
S11309400E94F5002FEF89E698E121508040904005
S1130950E1F700C000000E9440022FEF84E39CE016
S1130960215080409040E1F700C000000E945F02E7
S11309700E947F02F0920702C6CF0E9411012FEF5E
S113098081EE94E0215080409040E1F700C00000E7
S11309900E942101892B89F70E9400010E94EA002C
S11309A02FEF81EE94E0215080409040E1F700C0A9
S11309B000000E941C01892B89F70E94E4000E9418
S11309C006012FEF81EE94E0215080409040E1F742
S11309D000C000000E942101892B89F70E940001B8
S11309E00E94F5002FEF81EE94E02150804090406A
S11309F0E1F700C000000E941C01892B89F70E94C6
S1130A00E4008091100281110FC080E090E00E9408
S1130A10AF002FEF89E698E1215080409040E1F744
S1130A2000C00000C0931002D09307026CCF0E9454
S1130A307F0280911202882319F0C093130263CFBE
S1130A400E94260160CF80910202813071F480916E
S1130A50120281110AC00E9476010E947E01109246
S1130A6014021092110210920202109210021092BB
S1130A7013020E942C0180911202813011F48093A0
S1130A8002020E94CF002FEF81EE94E021508040BB
S1130A909040E1F700C000000E9411012FEF81EEA9
S1130AA094E0215080409040E1F700C000004C9950
S1130AB0FECF0E9400010093070225CF2FEF87EAA3
S1130AC091E6215080409040E1F700C000000E9470
S1130AD083020E9490052FEF8DE399E4215080401A
S1130AE09040E1F700C0000080910202813019F4C7
S1130AF01093070208CFC093070205CFC0930402E6
S1130B002FEF83ED90E3215080409040E1F700C047
S1130B1000000E947F02F7CE8FE380936D0008955A
S1130B2010926D000895809114028F5F80931402D7
S1130B3080910601809580FF05C090916D009E7F95
S1130B4090936D0081FF05C090916D009D7F9093FF
S1130B506D0082FF05C090916D009B7F90936D00A6
S1130B6083FF05C090916D00977F90936D0084FF83
S1130B7005C090916D009F7E90936D0085FF05C028
S1130B8080916D008F7D80936D000895991B79E0AD
S1130B9004C0991F961708F0961B881F7A95C9F709
S1130BA080950895A1E21A2EAA1BBB1BFD010DC05E
S1130BB0AA1FBB1FEE1FFF1FA217B307E407F50709
S1130BC020F0A21BB30BE40BF50B661F771F881FE5
S1130BD0991F1A9469F760957095809590959B017B
S1130BE0AC01BD01CF010895EE0FFF1F0590F491F4
S10B0BF0E02D0994F894FFCFF5
S1070BF802010100F1
S9030000FC
