:100000000C94A1000C9454050C94BE000C9485052E
:100010000C94C6050C94BE000C94BE000C94BE005B
:100020000C94BE000C94BE000C94BE000C943005E1
:100030000C94BE000C94BE000C94BE000C94BE0048
:100040000C94BE000C94FC040C94BE000C94BE00F6
:100050000C94BE000C94AA040C94BE000C94BE0038
:100060000C94BE000C94BE000C94BE000C94BE0018
:100070000C94BE000C94BE000C94BE000C94BE0008
:100080000C94BE000C94BE000C94BE000C94BE00F8
:100090000C94BE000C94BE000C94BE000C94BE00E8
:1000A0000C94BE000C94BE000C94BE000C94BE00D8
:1000B0000C94BE000C94BE000C94BE000C94BE00C8
:1000C0000C94BE000C94BE000C94BE000C94BE00B8
:1000D0000C94BE000C94BE000C94BE000C94BE00A8
:1000E0000C94BE00D601DA01DE01E201E601EA016C
:1000F000EE01F201F601FA0117021B021F022302B0
:1001000027022B022F02330237023B0273027702CF
:100110007B027F02830287028B028F029302970287
:10012000B902BD02C102C502C902CD02D102D50287
:10013000D902DD021C0625063D06A006A306D80648
:10014000F60611241FBECFEFD1E2DEBFCDBF12E015
:10015000A0E0B2E0EAEBFEE002C005900D92A43010
:10016000B107D9F722E0A4E0B2E001C01D92AC32A1
:10017000B207E1F70E94EA050C945B070C940000BB
:100180009C01EBE0F1E090819D7F90832093000241
:100190002130310531F4E8E0F1E08081806880832E
:1001A00007C0232B29F4E8E0F1E080818F7780837A
:1001B000EBE0F1E08081826080838081877F8083B3
:1001C0000895EBE0F1E080818860808380818D7FFD
:1001D000808382E0809300020895EBE0F1E080816B
:1001E0008D7F808382E0809300020895EBE0F1E050
:1001F00080818F7E80838081846080838081806124
:1002000080830895EBE0F1E080818F7E80838081A0
:100210008B7F80838081806180830895EBE0F1E0B3
:1002200080818F7E80830895EBE0F1E080818F777D
:10023000808380818062808380818068808308954C
:10024000EBE0F1E080818F77808380818F7D8083F8
:100250008081806880830895EBE0F1E080818F7772
:100260008083089589B186FB882780F990E00895FE
:1002700089B1817090E0089589B18695817090E090
:10028000089589B18295817090E0089589B183FBCA
:10029000882780F990E0089589B182FB882780F94A
:1002A00090E00895EBE0F1E0808180648083089520
:1002B000EBE0F1E080818F7B80830895F89480ECFF
:1002C0008093070184E0809368009FE390936D0022
:1002D0008FEF84B995B990EA9AB99AEA9093690038
:1002E000E89AEB9AEA9A80930A0178940895F89430
:1002F00082E084BD94E095BD80936E008CE987BD5B
:1003000078940895109285001092840008951092B8
:100310006F00089582E080936F000895F894109222
:1003200080008DE08093810082E080936F008CE8F4
:100330009BE590938900809388007894089580913C
:100340000402813009F0B3C0809105029091060249
:100350000196909306028093050280910502909188
:100360000602853B910508F08CC085B1805885B99F
:100370001F9B46C0E0911B0285B1807885B98DEC4A
:10038000E89F812D1124869586958695880F982F54
:10039000990F990F890FE81B8E2F90E08A309105F5
:1003A00068F5FC01EE58FF4F0C94550785B18F633B
:1003B00085B9089585B1866085B9089585B18B6545
:1003C00085B9089585B18F6485B9089585B186662C
:1003D00085B9089585B18D6685B9089585B18D6714
:1003E00085B9089585B1876085B9089585B18F670E
:1003F00085B9089585B1876685B908952E9A0895BF
:1004000080911B0295B1907895B9EDEC8E9F812D6E
:100410001124E82FE695E695E6958E2F90E08A3038
:10042000910568F5FC01E458FF4F0C94550785B120
:100430008F6385B9089585B1866085B9089585B1C2
:100440008B6585B9089585B18F6485B9089585B1A7
:10045000866685B9089585B18D6685B9089585B19B
:100460008D6785B9089585B1876085B9089585B18F
:100470008F6785B9089585B1876685B908952E9AE5
:1004800008958091050290910602843B910508F43D
:1004900099C015B88091050290910602883C91059B
:1004A00009F090C01092060210920502089585B1DD
:1004B000805885B91F9941C080911B0295B19078F1
:1004C00095B9EDEC8E9F812D1124E82FE695E695E8
:1004D000E6958E2F90E08A30910568F5FC01EA5789
:1004E000FF4F0C94550785B18F6385B9089585B189
:1004F000866085B9089585B18B6585B9089585B104
:100500008F6485B9089585B1866685B9089585B1EA
:100510008D6685B9089585B18D6785B9089585B1D2
:10052000876085B9089585B18F6785B9089585B1CC
:10053000876685B908952E9A0895E0911B0285B1CA
:10054000807885B98DECE89F812D1124869586955C
:100550008695880F982F990F990F890FE81B8E2F7A
:1005600090E08A30910568F5FC01E057FF4F0C944C
:10057000550785B18F6385B9089585B1866085B9C2
:10058000089585B18B6585B9089585B18F6485B966
:10059000089585B1866685B9089585B18D6685B95A
:1005A000089585B18D6785B9089585B1876085B94E
:1005B000089585B18F6785B9089585B1876685B936
:1005C00008952E9A0895E7E0F1E0808180648083A9
:1005D000EAE0F1E08081816080835698EBE0F1E011
:1005E00080818E7F80830895559A579AE9E6F0E0DE
:1005F000808180688083EB9A5F980895F8940E94C8
:10060000E3020E94F40278940895EBE0F1E0808127
:100610008E7F8083A8E0B1E08C9180648C93808190
:10062000816080832FEF83ED90E3215080409040E4
:10063000E1F700C0000080818E7F808381E080939D
:100640001E0208955F985D985F9A2FEF8DE399E4FD
:10065000215080409040E1F700C000005F98109268
:100660001F020895EBE0F1E080818E7F808380910E
:100670001E028130A9F4E8E0F1E080818F7B808365
:10068000EBE0F1E08081816080834E9BFECF4E994C
:10069000FECFEBE0F1E080818E7F808310921E021E
:1006A0000895EBE0F1E080818E7F808380911E02CF
:1006B000811116C0E8E0F1E0808180648083EBE086
:1006C000F1E08081816080834E9BFECF4E99FECF0A
:1006D000EBE0F1E080818E7F808381E080931E02D9
:1006E000089581E08093090280911F02811103C067
:1006F0005F985D9A5F9A0895EB98E39A10920802CA
:10070000109207028091090281110CC04D9903C01B
:1007100010921F025F984D9B14C081E080931F02CE
:100720005F98089580910902813059F480931F02E7
:100730001092090280911F02813019F45F985D9830
:100740005F9A089580910702909108020596909310
:100750000802809307028091070290910802449753
:1007600010F0EB9AE39A0895F894E89AE9E6F0E03D
:10077000808182608083EA9A808180628083509841
:10078000519854985398E7E0F1E080818064808329
:10079000808180688083EAE0F1E0808184608083EA
:1007A000808180628083559A80818160808380818E
:1007B0008260808380818061808380818068808383
:1007C000579A8081886080837894089580E090E0D3
:1007D0000E94C0002FEF89E698E1215080409040B0
:1007E000E1F700C000000E94ED00109201020895A0
:1007F0000E9402012FEF81EE94E021508040904052
:10080000E1F700C000004999FECF0E940E01089553
:100810000E9420012FEF81EE94E021508040904013
:10082000E1F700C000004C99FECF0E942C01089512
:1008300080910F0290911002A0911102B0911202CA
:100840000596A11DB11D80930F0290931002A093F5
:100850001102B093120280910F0290911002A091A8
:100860001102B091120240910B0250910C02609162
:100870000D0270910E02841B950BA60BB70B843FE3
:100880009140A105B10510F4E8980895E89A0895FB
:1008900060910F02709110028091110290911202EA
:1008A00028EC30E040E050E00E94330765367105E7
:1008B0008105910518F40E94580108950E94520183
:1008C000089580910F0290911002A0911102B091B1
:1008D000120240910B0250910C0260910D02709136
:1008E0000E02841B950BA60BB70B853F9140A1050B
:1008F000B10578F1809100028130A9F480910F0256
:1009000090911002A0911102B091120280930B02FB
:1009100090930C02A0930D02B0930E0280E090E041
:100920000E94C0000895811114C080910F0290911F
:100930001002A0911102B091120280930B029093C9
:100940000C02A0930D02B0930E0281E090E00E9491
:10095000C00008951F920F920FB60F9211242F938B
:100960003F934F935F936F937F938F939F93AF9337
:10097000BF93EF93FF930E949F010E94A2030E94E6
:10098000180480911A02813011F40E9448040E94D8
:10099000320190932502809324020E9438019093A3
:1009A0002902809328020E943C01909327028093A1
:1009B00026020E94410190932102809320020E940E
:1009C000460190932302809322020E944C0190934F
:1009D0002B0280932A02FF91EF91BF91AF919F91DB
:1009E0008F917F916F915F914F913F912F910F90D8
:1009F0000FBE0F901F9018951F920F920FB60F9277
:100A000011242F933F934F935F936F937F938F9313
:100A10009F93AF93BF93EF93FF93809118028F5FE3
:100A200080931802809118028A3049F481E0809303
:100A30001A02809319020E94870180911802FF9187
:100A4000EF91BF91AF919F918F917F916F915F9146
:100A50004F913F912F910F900FBE0F901F901895BF
:100A60001F920F920FB60F9211242F933F934F9323
:100A70005F936F937F938F939F93AF93BF93EF9306
:100A8000FF930E940007FF91EF91BF91AF919F915B
:100A90008F917F916F915F914F913F912F910F9027
:100AA0000FBE0F901F9018951F920F920FB60F92C6
:100AB00011242F933F934F935F936F937F938F9363
:100AC0009F93AF93BF93EF93FF9380911502909103
:100AD00016020196909316028093150280910A02E5
:100AE000833011F40E946104FF91EF91BF91AF91A7
:100AF0009F918F917F916F915F914F913F912F9136
:100B00000F900FBE0F901F9018951F920F920FB667
:100B10000F9211242F933F934F935F936F937F9383
:100B20008F939F93AF93BF93EF93FF9380911302A3
:100B30009091140201969093140280931302809175
:100B40000A02833029F40E94FC0684E080930A02A2
:100B500080910A02811103C081E080930A02809192
:100B60000A02863011F410920A02FF91EF91BF91B0
:100B7000AF919F918F917F916F915F914F913F9135
:100B80002F910F900FBE0F901F9018951F920F92EC
:100B90000FB60F9211242F933F934F935F936F9350
:100BA0007F938F939F93AF93BF93EF93FF930E9495
:100BB0007C03FF91EF91BF91AF919F918F917F91B6
:100BC0006F915F914F913F912F910F900FBE0F90BA
:100BD0001F9018952FEF81EE94E0215080409040B7
:100BE000E1F700C000000E945E010E94B4030E9471
:100BF00077010E948E010E94FE020E9422030E9441
:100C000005030E94F8030E9408040E94E60303E023
:100C1000C1E00F2EF6E0FF2EF02D15E0D2E0E091BE
:100C20000A028E2F90E08730910508F0E2C0FC01A7
:100C3000E656FF4F0C9455071092190210921A02B3
:100C40001092040210921B02EACF0E94510381E02D
:100C500090E00E94C0000E9402012FEF89E698E117
:100C6000215080409040E1F700C000000E94320314
:100C70000E945103D0930A02D2CF0E9420012FEF8D
:100C800081EE94E0215080409040E1F700C00000E8
:100C90000E944101892B89F70E942C010E94F600D5
:100CA0002FEF81EE94E0215080409040E1F700C0AA
:100CB00000000E943C01892B89F70E940E010E94CE
:100CC00014012FEF81EE94E0215080409040E1F735
:100CD00000C000000E944101892B89F70E942C016D
:100CE0000E9402012FEF81EE94E02150804090405D
:100CF000E1F700C000000E943C01892B89F70E94A7
:100D00000E012FEF81EE94E0215080409040E1F7FA
:100D100000C000008091170281110FC080E090E0B8
:100D20000E94C0002FEF89E698E12150804090405A
:100D3000E1F700C00000C093170200930A026FCFD2
:100D40000E9452016CCF80910202882341F00E94E0
:100D500082010E948A0110921802109202021092DF
:100D6000170210921A020E945801809119028130D4
:100D700011F4C09302020E94E1002FEF81EE94E093
:100D8000215080409040E1F700C000000E94200107
:100D90002FEF81EE94E0215080409040E1F700C0B9
:100DA00000004C99FECF0E942C0110930A0237CF0D
:100DB0002FEF87EA91E6215080409040E1F700C094
:100DC00000000E9471032FEF89E698E121508040D6
:100DD0009040E1F700C0000080910202813019F4D8
:100DE000F0920A021CCFC0930A0219CFC0930402EA
:100DF00016CF10920A0213CF8FE380936D000895EF
:100E000080911B028F5F80931B0280910601809569
:100E100080FF05C0EDE6F0E090819E7F908381FF2A
:100E200005C0EDE6F0E090819D7F908382FF05C0D4
:100E3000EDE6F0E090819B7F908383FF05C0EDE6B7
:100E4000F0E09081977F908384FF05C0EDE6F0E0AD
:100E500090819F7E908385FF05C0EDE6F0E0808164
:100E60008F7D80830895A1E21A2EAA1BBB1BFD0172
:100E70000DC0AA1FBB1FEE1FFF1FA217B307E40779
:100E8000F50720F0A21BB30BE40BF50B661F771FD1
:100E9000881F991F1A9469F76095709580959095B1
:100EA0009B01AC01BD01CF010895EE0FFF1F05901E
:0A0EB000F491E02D0994F894FFCFAF
:040EBA000201010030
:00000001FF
