:100000000C94A1000C9465050C94BE000C9496050C
:100010000C94D7050C94BE000C94BE000C94BE004A
:100020000C94BE000C94BE000C94BE000C943805D9
:100030000C94BE000C94BE000C94BE000C94BE0048
:100040000C94BE000C9404050C94BE000C94BE00ED
:100050000C94BE000C94B2040C94BE000C94BE0030
:100060000C94BE000C94BE000C94BE000C94BE0018
:100070000C94BE000C94BE000C94BE000C94BE0008
:100080000C94BE000C94BE000C94BE000C94BE00F8
:100090000C94BE000C94BE000C94BE000C94BE00E8
:1000A0000C94BE000C94BE000C94BE000C94BE00D8
:1000B0000C94BE000C94BE000C94BE000C94BE00C8
:1000C0000C94BE000C94BE000C94BE000C94BE00B8
:1000D0000C94BE000C94BE000C94BE000C94BE00A8
:1000E0000C94BE00D601DA01DE01E201E601EA016C
:1000F000EE01F201F601FA0117021B021F022302B0
:1001000027022B022F02330237023B0273027702CF
:100110007B027F02830287028B028F029302970287
:10012000B902BD02C102C502C902CD02D102D50287
:10013000D902DD022F0638065906BC06BF06FA06AC
:100140001A0711241FBECFEFD1E2DEBFCDBF12E0F0
:10015000A0E0B2E0E8E0FFE002C005900D92A4301C
:10016000B107D9F722E0A4E0B2E001C01D92AE329F
:10017000B207E1F70E94FB050C9482070C94000083
:100180009C01EBE0F1E090819D7F90832093000241
:100190002130310531F4E8E0F1E08081806880832E
:1001A00007C0232B29F4E8E0F1E080818F7780837A
:1001B000EBE0F1E08081826080838081877F8083B3
:1001C0000895EBE0F1E080818860808380818D7FFD
:1001D000808382E0809300020895EBE0F1E080816B
:1001E0008D7F808382E0809300020895EBE0F1E050
:1001F00080818F7E80838081846080838081806124
:1002000080830895EBE0F1E080818F7E80838081A0
:100210008B7F80838081806180830895EBE0F1E0B3
:1002200080818F7E80830895EBE0F1E080818F777D
:10023000808380818062808380818068808308954C
:10024000EBE0F1E080818F77808380818F7D8083F8
:100250008081806880830895EBE0F1E080818F7772
:100260008083089589B186FB882780F990E00895FE
:1002700089B1817090E0089589B18695817090E090
:10028000089589B18295817090E0089589B183FBCA
:10029000882780F990E0089589B182FB882780F94A
:1002A00090E00895EBE0F1E0808180648083089520
:1002B000EBE0F1E080818F7B80830895F89480ECFF
:1002C0008093070184E08093680010926D008FEFA7
:1002D00084B99FE395B990EA9AB992EA909369003C
:1002E000E89AEB9AEA9A80930A0178940895F89430
:1002F00082E084BD94E095BD80936E008CE987BD5B
:1003000078940895109285001092840008951092B8
:100310006F00089582E080936F000895F894109222
:1003200080008DE08093810082E080936F008CE8F4
:100330009BE590938900809388007894089580913C
:100340000402813009F0B3C0809105029091060249
:100350000196909306028093050280910502909188
:100360000602853B910508F08CC085B1805885B99F
:100370001F9B46C0E0911D0285B1807885B98DEC48
:10038000E89F812D1124869586958695880F982F54
:10039000990F990F890FE81B8E2F90E08A309105F5
:1003A00068F5FC01EE58FF4F0C947C0785B18F6314
:1003B00085B9089585B1866085B9089585B18B6545
:1003C00085B9089585B18F6485B9089585B186662C
:1003D00085B9089585B18D6685B9089585B18D6714
:1003E00085B9089585B1876085B9089585B18F670E
:1003F00085B9089585B1876685B908952E9A0895BF
:1004000080911D0295B1907895B9EDEC8E9F812D6C
:100410001124E82FE695E695E6958E2F90E08A3038
:10042000910568F5FC01E458FF4F0C947C0785B1F9
:100430008F6385B9089585B1866085B9089585B1C2
:100440008B6585B9089585B18F6485B9089585B1A7
:10045000866685B9089585B18D6685B9089585B19B
:100460008D6785B9089585B1876085B9089585B18F
:100470008F6785B9089585B1876685B908952E9AE5
:1004800008958091050290910602843B910508F43D
:1004900099C015B88091050290910602883C91059B
:1004A00009F090C01092060210920502089585B1DD
:1004B000805885B91F9941C080911D0295B19078EF
:1004C00095B9EDEC8E9F812D1124E82FE695E695E8
:1004D000E6958E2F90E08A30910568F5FC01EA5789
:1004E000FF4F0C947C0785B18F6385B9089585B162
:1004F000866085B9089585B18B6585B9089585B104
:100500008F6485B9089585B1866685B9089585B1EA
:100510008D6685B9089585B18D6785B9089585B1D2
:10052000876085B9089585B18F6785B9089585B1CC
:10053000876685B908952E9A0895E0911D0285B1C8
:10054000807885B98DECE89F812D1124869586955C
:100550008695880F982F990F990F890FE81B8E2F7A
:1005600090E08A30910568F5FC01E057FF4F0C944C
:100570007C0785B18F6385B9089585B1866085B99B
:10058000089585B18B6585B9089585B18F6485B966
:10059000089585B1866685B9089585B18D6685B95A
:1005A000089585B18D6785B9089585B1876085B94E
:1005B000089585B18F6785B9089585B1876685B936
:1005C00008952E9A0895E7E0F1E0808180648083A9
:1005D000EAE0F1E08081816080835698EBE0F1E011
:1005E00080818E7F80830895559A579AE9E6F0E0DE
:1005F000808180688083EB9A5F980895F8940E94C8
:10060000E3020E94F40278940895EBE0F1E0808127
:100610008E7F8083A8E0B1E08C9180648C93808190
:10062000816080832FEF83ED90E3215080409040E4
:10063000E1F700C0000080818E7F808381E080939D
:10064000200208955F985D985F9A2FEF8DE399E4FB
:10065000215080409040E1F700C000005F98109268
:1006600021020895EBE0F1E080818E7F808380910C
:1006700020028130A9F4E8E0F1E080818F7B808363
:10068000EBE0F1E08081816080834E9BFECF4E994C
:10069000FECFEBE0F1E080818E7F8083109220021C
:1006A0000895EBE0F1E080818E7F808380912002CD
:1006B000811116C0E8E0F1E0808180648083EBE086
:1006C000F1E08081816080834E9BFECF4E99FECF0A
:1006D000EBE0F1E080818E7F808381E080932002D7
:1006E000089580912102813019F45F985D985F9A96
:1006F000089581E08093090280912102811103C055
:100700005F985D9A5F9A0895EB98E39A10920802B9
:10071000109207028091090281110CC04D9903C00B
:10072000109221025F984D9B14C081E080932102BA
:100730005F98089580910902813059F480932102D5
:100740001092090280912102813019F45F985D981E
:100750005F9A089580910702909108020596909300
:100760000802809307028091070290910802449743
:1007700010F0EB9AE39A0895F894E89AE9E6F0E02D
:10078000808182608083EA9A808180628083509831
:10079000519854985398E7E0F1E080818064808319
:1007A000808180688083EAE0F1E0808184608083DA
:1007B000808180628083559A80818160808380817E
:1007C0008260808380818061808380818068808373
:1007D000579A8081886080837894089580E090E0C3
:1007E0000E94C0002FEF89E698E1215080409040A0
:1007F000E1F700C000000E94ED0010920102089590
:100800000E9402012FEF81EE94E021508040904041
:10081000E1F700C000004999FECF0E940E01089543
:100820000E9420012FEF81EE94E021508040904003
:10083000E1F700C000004C99FECF0E942C01089502
:1008400080910F0290911002A0911102B0911202BA
:100850000596A11DB11D80930F0290931002A093E5
:100860001102B093120280910F0290911002A09198
:100870001102B091120240910B0250910C02609152
:100880000D0270910E02841B950BA60BB70B843FD3
:100890009140A105B10510F4E8980895E89A0895EB
:1008A00060910F02709110028091110290911202DA
:1008B00028EC30E040E050E00E945A0765367105B0
:1008C0008105910518F40E94580108950E94520173
:1008D000089580910F0290911002A0911102B091A1
:1008E000120240910B0250910C0260910D02709126
:1008F0000E02841B950BA60BB70B853F9140A105FB
:10090000B10578F1809100028130A9F480910F0245
:1009100090911002A0911102B091120280930B02EB
:1009200090930C02A0930D02B0930E0280E090E031
:100930000E94C0000895811114C080910F0290910F
:100940001002A0911102B091120280930B029093B9
:100950000C02A0930D02B0930E0281E090E00E9481
:10096000C00008951F920F920FB60F9211242F937B
:100970003F934F935F936F937F938F939F93AF9327
:10098000BF93EF93FF930E949F010E94AA030E94CE
:10099000200480911C02813011F40E9450040E94B6
:1009A000320190932702809326020E94380190938F
:1009B0002B0280932A020E943C019093290280938B
:1009C00028020E94410190932302809322020E94F8
:1009D000460190932502809324020E944C0190933B
:1009E0002D0280932C02FF91EF91BF91AF919F91C7
:1009F0008F917F916F915F914F913F912F910F90C8
:100A00000FBE0F901F9018951F920F920FB60F9266
:100A100011242F933F934F935F936F937F938F9303
:100A20009F93AF93BF93EF93FF9380911A028F5FD1
:100A300080931A0280911A028A3049F481E08093EF
:100A40001C0280931B020E94870110921A02FF91E0
:100A5000EF91BF91AF919F918F917F916F915F9136
:100A60004F913F912F910F900FBE0F901F901895AF
:100A70001F920F920FB60F9211242F933F934F9313
:100A80005F936F937F938F939F93AF93BF93EF93F6
:100A9000FF930E9427078091130290911402019600
:100AA0009093140280931302FF91EF91BF91AF9145
:100AB0009F918F917F916F915F914F913F912F9176
:100AC0000F900FBE0F901F9018951F920F920FB6A8
:100AD0000F9211242F933F934F935F936F937F93C4
:100AE0008F939F93AF93BF93EF93FF9380911702E0
:100AF00090911802019690931802809317028091AA
:100B00000A02833011F40E946904FF91EF91BF91B2
:100B1000AF919F918F917F916F915F914F913F9195
:100B20002F910F900FBE0F901F9018951F920F924C
:100B30000FB60F9211242F933F934F935F936F93B0
:100B40007F938F939F93AF93BF93EF93FF93809186
:100B50001502909116020196909316028093150249
:100B600080910A02833029F40E94200784E0809358
:100B70000A0280910A02811103C081E080930A0277
:100B800080910A02863011F410920A02FF91EF91CF
:100B9000BF91AF919F918F917F916F915F914F9195
:100BA0003F912F910F900FBE0F901F9018951F929D
:100BB0000F920FB60F9211242F933F934F935F9391
:100BC0006F937F938F939F93AF93BF93EF93FF9315
:100BD0000E948403FF91EF91BF91AF919F918F91FC
:100BE0007F916F915F914F913F912F910F900FBE29
:100BF0000F901F9018952FEF81EE94E021508040C8
:100C00009040E1F700C000000E945E010E94BC031A
:100C10000E9477010E948E010E94FE020E94220320
:100C20000E9471030E9405030E9400040E941004A8
:100C30000E94EE0303E0C1E00F2EF6E0FF2EF02D40
:100C400015E0D2E0E0910A028E2F90E08730910506
:100C500008F0F3C0FC01E656FF4F0C947C0710929D
:100C60001B0210921C021092040210921D02EACF85
:100C70000E94510381E090E00E94C0000E940201A6
:100C80002FEF89E698E1215080409040E1F700C0C5
:100C900000000E9432032FEF84E39CE0215080404B
:100CA0009040E1F700C000000E945103D0930A0277
:100CB000C9CF0E9420012FEF81EE94E021508040A7
:100CC0009040E1F700C000000E944101892B89F7A4
:100CD0000E942C010E94F6002FEF81EE94E021503B
:100CE00080409040E1F700C000000E943C01892B49
:100CF00089F70E940E010E9414012FEF81EE94E00B
:100D0000215080409040E1F700C000000E94410166
:100D1000892B89F70E942C010E9402012FEF81EE9E
:100D200094E0215080409040E1F700C000000E9414
:100D30003C01892B89F70E940E012FEF81EE94E090
:100D4000215080409040E1F700C0000080911902DE
:100D500081110FC080E090E00E94C0002FEF89E673
:100D600098E1215080409040E1F700C00000C0931E
:100D7000190200930A0266CF0E94520163CF80914C
:100D80000202813071F480911B0281110AC00E941D
:100D900082010E948A0110921D0210921A02109282
:100DA00002021092190210921C020E9458018091B6
:100DB0001B02813011F4C09302020E94E1002FEF68
:100DC00081EE94E0215080409040E1F700C00000A7
:100DD0000E9420012FEF81EE94E02150804090404E
:100DE000E1F700C000004C99FECF0E942C01109347
:100DF0000A0228CF2FEF87EA91E6215080409040E9
:100E0000E1F700C000000E9479032FEF89E698E126
:100E1000215080409040E1F700C000000E9424076C
:100E200080910202813019F4F0920A020BCFC09334
:100E30000A0208CFC093040205CF10920A0202CF23
:100E40008FE380936D00089510926D000895809156
:100E50001D028F5F80931D0280910601809580FFA7
:100E600005C0EDE6F0E090819E7F908381FF05C094
:100E7000EDE6F0E090819D7F908382FF05C0EDE676
:100E8000F0E090819B7F908383FF05C0EDE6F0E06A
:100E90009081977F908384FF05C0EDE6F0E090811C
:100EA0009F7E908385FF05C0EDE6F0E080818F7D19
:100EB00080830895A1E21A2EAA1BBB1BFD010DC061
:100EC000AA1FBB1FEE1FFF1FA217B307E407F507FA
:100ED00020F0A21BB30BE40BF50B661F771F881FD6
:100EE000991F1A9469F760957095809590959B016C
:100EF000AC01BD01CF010895EE0FFF1F0590F491E5
:080F0000E02D0994F894FFCFE5
:040F080002010100E1
:00000001FF
