S0140000507275656261476C6F62616C2E7372656360
S11300000C9483000C9490040C94A0000C94C104F0
S11300100C9402050C94A0000C94A0000C94A00075
S11300200C94A0000C94A0000C94A0000C94630405
S11300300C94A0000C94A0000C94A0000C94A000BC
S11300400C94A0000C942F040C94A0000C94A00019
S11300500C94A0000C94DD030C94A0000C94A0005C
S11300600C94A0000C94A0000C94A0000C94A0008C
S11300700C94A0000C94A0000C94A0000C94A0007C
S11300800C94A0000C94A0000C94A0000C94A0006C
S11300900C94A0000C94A0000C94A0000C94A0005C
S11300A00C94A0000C94A0000C94A0000C94A0004C
S11300B00C94A0000C94A0000C94A0000C94A0003C
S11300C00C94A0000C94A0000C94A0000C94A0002C
S11300D00C94A0000C94A0000C94A0000C94A0001C
S11300E00C94A000C901CB01CD01CF01D101D301F2
S11300F0D501D701D901DB0155055E057F05D90579
S1130100DE051906390611241FBECFEFD1E2DEBF8A
S1130110CDBF12E0A0E0B2E0EAE6FDE002C0059047
S11301200D92A430B107D9F722E0A4E0B2E001C0F7
S11301301D92AE32B207E1F70E9426050C94B30675
S11301400C94000020910B012D7F20930B018093D0
S113015000028130910521F480910801806805C076
S1130160892B29F4809108018F778093080180916D
S11301700B01826080930B0180910B01877F809338
S11301800B010895EBE0F1E0808188608083808139
S11301908D7F808382E0809300020895EBE0F1E09C
S11301A080818D7F808382E0809300020895EBE05C
S11301B0F1E080818F7E808308950E94D700EBE078
S11301C0F1E08081846080838081806180830895F0
S11301D00E94D700EBE0F1E080818B7F80838081F7
S11301E0806180830895EBE0F1E080818F778083E4
S11301F008950E94F300EBE0F1E080818062808347
S113020080818068808308950E94F300EBE0F1E030
S113021080818F7D8083808180688083089589B107
S113022086FB882780F990E0089589B1817090E079
S1130230089589B18695817090E0089589B1829579
S1130240817090E0089589B183FB882780F990E05C
S1130250089589B182FB882780F990E00895EBE046
S1130260F1E08081806480830895EBE0F1E0808197
S11302708F7B80830895F894E7E0F1E080818068C3
S11302808083808180648083E8E6F0E080818460FC
S11302908083209A219A229A239A249A259A269A2C
S11302A0279A2D9A2C9A2B9A2A9A299A289A579AFD
S11302B0559AE9E6F0E080818068808380818062DD
S11302C08083808182608083E89AEA9AEAE0F1E0A0
S11302D0808181608083808182608083808184606A
S11302E08083808188608083808180618083808135
S11302F08062808380818064808380818068808341
S113030078940895F89484B5826084BD85B584603A
S113031085BDEEE6F0E08081826080838CE987BD54
S11303207894089510928500109284000895109294
S11303306F00089582E080936F000895F894E1E8D7
S1130340F0E080818160808380818460808380810B
S113035088608083EFE6F0E08081826080838DE8AE
S11303609BE590938900809388007894089585B1E3
S1130370807885B90895CF93DF93EC010E94B7018B
S1130380CA30D105D8F4FE01EE58FF4F85B10C9464
S1130390AD068F6311C086600FC08B650DC08F647E
S11303A00BC0866609C08D6607C08D6705C087606F
S11303B003C08F6701C0876685B901C02E9ADF919B
S11303C0CF91089580910402813021F58091050236
S11303D09091060201969093060280930502809103
S11303E0050290910602853B9105A0F080910502DB
S11303F090910602843B910508F115B8809105029D
S113040090910602883C9105C9F41092060210925C
S11304100502089585B1805885B91F9906C0809159
S11304201D026AE00E947F0606C080911D026AE0F8
S11304300E947F06892F90E00C94BB010895E7E0A9
S1130440F1E0808180648083EAE0F1E08081816072
S113045080835698EBE0F1E080818E7F808308955D
S1130460559A579AE9E6F0E0808180688083EB9A98
S11304705F980895F8940E941F020E9430027894B5
S11304800895EBE0F1E080818E7F8083A8E0B1E005
S11304908C9180648C938081816080832FEF83EDC5
S11304A090E3215080409040E1F700C0000080813B
S11304B08E7F808381E08093200208955F985D9809
S11304C05F9A2FEF8DE399E4215080409040E1F74B
S11304D000C000005F9810922102089580910B01E2
S11304E08E7F80930B01809120028130A9F480914A
S11304F008018F7B8093080180910B0181608093B8
S11305000B014E9BFECF4E99FECF80910B018E7F47
S113051080930B0110922002089580910B018E7F2D
S113052080930B0180912002811116C080910801F3
S113053080648093080180910B01816080930B019A
S11305404E9BFECF4E99FECF80910B018E7F809300
S11305500B0181E08093200208955F985D985F9A73
S113056008955F985D9A5F9A0895F894EB9878944B
S113057010920802109207028091090281110CC0A6
S11305804D9903C0109221025F984D9B0FC081E0EA
S1130590809321025F98089580910902813031F49B
S11305A080932102109209020C94AD020895809167
S11305B0070290910802059690930802809307021F
S11305C08091070290910802449718F0F894EB9AEE
S11305D078940895F894E89AE9E6F0E080818260DE
S11305E08083EA9A808180628083509851985498DD
S11305F05398E7E0F1E080818064808380818068A3
S11306008083EAE0F1E0808184608083808180627D
S11306108083559A80818160808380818260808319
S1130620808180618083808180688083579A808103
S1130630886080837894089580E090E00E94A2000E
S11306402FEF89E698E1215080409040E1F700C007
S113065000000E94CE001092010208950E94E8005A
S11306602FEF81EE94E0215080409040E1F700C0EC
S113067000004999FECF0C94D7000E9404012FEF8B
S113068081EE94E0215080409040E1F700C00000EA
S11306904C99FECF0C94F30080910F0290911002BC
S11306A0A0911102B09112020596A11DB11D809373
S11306B00F0290931002A0931102B0931202809142
S11306C00F0290911002A0911102B0911202409178
S11306D00B0250910C0260910D0270910E02841B6A
S11306E0950BA60BB70B843F9140A105B10518F4F7
S11306F0F894E89802C0F894E89A78940895609180
S11307000F0270911002809111029091120228EC54
S113071030E040E050E00E948B06653671058105AB
S1130720910510F40C9435010C942F0180910F0263
S113073090911002A0911102B091120240910B020B
S113074050910C0260910D0270910E02841B950B66
S1130750A60BB70B853F9140A105B10568F18091C7
S11307600002813099F480910F0290911002A091BF
S11307701102B091120280930B0290930C02A09389
S11307800D02B0930E0280E090E014C0811114C0F9
S113079080910F0290911002A0911102B091120267
S11307A080930B0290930C02A0930D02B0930E025F
S11307B081E090E00C94A20008951F920F920FB66E
S11307C00F9211242F933F934F935F936F937F93D3
S11307D08F939F93AF93BF93EF93FF930E94E20194
S11307E00E94D7020E944C0380911C02813011F4B4
S11307F00E947F030E940F01909327028093260298
S11308000E94150190932B0280932A020E941901E1
S113081090932902809328020E941E019093230240
S1130820809322020E942301909325028093240244
S11308300E94290190932D0280932C02FF91EF9145
S1130840BF91AF919F918F917F916F915F914F91E4
S11308503F912F910F900FBE0F901F9018951F92EC
S11308600F920FB60F9211242F933F934F935F93E0
S11308706F937F938F939F93AF93BF93EF93FF9364
S113088080911A028F5F80931A0280911A028A3033
S113089049F481E080931C0280931B020E9497011B
S11308A010921A02FF91EF91BF91AF919F918F9196
S11308B07F916F915F914F913F912F910F900FBE58
S11308C00F901F9018951F920F920FB60F9211243C
S11308D02F933F934F935F936F937F938F939F9344
S11308E0AF93BF93EF93FF930E944C068091130242
S11308F09091140201969093140280931302FF9135
S1130900EF91BF91AF919F918F917F916F915F9183
S11309104F913F912F910F900FBE0F901F901895FC
S11309201F920F920FB60F9211242F933F934F9360
S11309305F936F937F938F939F93AF93BF93EF9343
S1130940FF938091170290911802019690931802D8
S11309508093170280910A02833011F40E94960357
S1130960FF91EF91BF91AF919F918F917F916F9183
S11309705F914F913F912F910F900FBE0F901F9059
S113098018951F920F920FB60F9211242F933F9335
S11309904F935F936F937F938F939F93AF93BF9383
S11309A0EF93FF9380911502909116020196909314
S11309B016028093150280910A02833029F40E9462
S11309C0450684E080930A0280910A02811103C0E3
S11309D081E080930A0280910A02863011F4109219
S11309E00A02FF91EF91BF91AF919F918F917F91F7
S11309F06F915F914F913F912F910F900FBE0F9088
S1130A001F9018951F920F920FB60F9211242F93D7
S1130A103F934F935F936F937F938F939F93AF9382
S1130A20BF93EF93FF930E94B502FF91EF91BF91A3
S1130A30AF919F918F917F916F915F914F913F9172
S1130A402F910F900FBE0F901F9018952FEF81EEEE
S1130A5094E0215080409040E1F700C000000E94E3
S1130A603B010E94EA020E9482010E949E010E94B0
S1130A703A020E945E020E94AD020E9441020E945C
S1130A802E030E943D030E941C03D3E0C1E016E044
S1130A9005E082E0F82EE0910A02F0E0E730F1058B
S1130AA0D0F7E458FF4F0C94AD0610921B0210923D
S1130AB01C021092040210921D02EDCF0E948D02BE
S1130AC081E090E00E94A2000E94E8002FEF89E6F6
S1130AD098E1215080409040E1F700C000000E945E
S1130AE06E022FEF84E39CE0215080409040E1F7B8
S1130AF000C000000E948D02F0920A02CCCF0E9436
S1130B0004012FEF81EE94E0215080409040E1F702
S1130B1000C000000E941E01892B89F70E94F30087
S1130B200E94DD002FEF81EE94E021508040904040
S1130B30E1F700C000000E941901892B89F70E9487
S1130B40D7000E94F9002FEF81EE94E021508040FD
S1130B509040E1F700C000000E941E01892B89F734
S1130B600E94F3000E94E8002FEF81EE94E02150F0
S1130B7080409040E1F700C000000E941901892BD9
S1130B8089F70E94D7008091190281110FC080E07B
S1130B9090E00E94A2002FEF89E698E12150804066
S1130BA09040E1F700C00000C0931902D0930A02FC
S1130BB072CF0E94AD020E942F016DCF809102027C
S1130BC0813071F480911B0281110AC00E9492014C
S1130BD00E949A0110921D0210921A0210920202AF
S1130BE01092190210921C020E94350180911B027E
S1130BF0813011F4809302020E94C2002FEF81EE33
S1130C0094E0215080409040E1F700C000000E9431
S1130C1004012FEF81EE94E0215080409040E1F7F1
S1130C2000C000004C99FECF0E94F30000930A021A
S1130C3032CF2FEF87EA91E6215080409040E1F7D0
S1130C4000C000002FEF89E698E1215080409040D9
S1130C50E1F700C000000E94B1020E9449068091A1
S1130C600202813019F410930A0215CFC0930A02CC
S1130C7012CFC09304022FEF83ED90E32150804004
S1130C809040E1F700C0000006CF8FE380936D0031
S1130C90089510926D00089580911D028F5F8093D6
S1130CA01D0280910601809580FF05C090916D0022
S1130CB09E7F90936D0081FF05C090916D009D7F94
S1130CC090936D0082FF05C090916D009B7F90937F
S1130CD06D0083FF05C090916D00977F90936D0028
S1130CE084FF05C090916D009F7E90936D0085FFF9
S1130CF005C080916D008F7D80936D000895991BD0
S1130D0079E004C0991F961708F0961B881F7A95FE
S1130D10C9F780950895A1E21A2EAA1BBB1BFD01F9
S1130D200DC0AA1FBB1FEE1FFF1FA217B307E407C6
S1130D30F50720F0A21BB30BE40BF50B661F771F1E
S1130D40881F991F1A9469F76095709580959095FE
S1130D509B01AC01BD01CF010895EE0FFF1F05906B
S10D0D60F491E02D0994F894FFCFFC
S1070D6A020101007D
S9030000FC
