S0140000507275656261476C6F62616C2E7372656360
S11300000C94A1000C945E050C94BE000C948B051A
S11300100C94CC050C94BE000C94BE000C94BE0051
S11300200C94BE000C94BE000C94BE000C943A05D3
S11300300C94BE000C94BE000C94BE000C94BE0044
S11300400C94BE000C9411050C94BE000C94BE00DC
S11300500C94BE000C94C1040C94BE000C94BE001D
S11300600C94BE000C94BE000C94BE000C94BE0014
S11300700C94BE000C94BE000C94BE000C94BE0004
S11300800C94BE000C94BE000C94BE000C94BE00F4
S11300900C94BE000C94BE000C94BE000C94BE00E4
S11300A00C94BE000C94BE000C94BE000C94BE00D4
S11300B00C94BE000C94BE000C94BE000C94BE00C4
S11300C00C94BE000C94BE000C94BE000C94BE00B4
S11300D00C94BE000C94BE000C94BE000C94BE00A4
S11300E00C94BE00D601DA01DE01E201E601EA0168
S11300F0EE01F201F601FA0117021B021F022302AC
S113010027022B022F02330237023B0273027702CB
S11301107B027F02830287028B028F029302970283
S1130120B902BD02C102C502C902CD02D102D50283
S1130130D902DD022206290641069C06AC06D50634
S1130140F30611241FBECFEFD1E2DEBFCDBF12E014
S1130150A0E0B2E0E4EBFEE002C005900D92A23014
S1130160B107D9F722E0A2E0B2E001C01D92A932A2
S1130170B207E1F70E94F0050C9458070C940000B4
S11301809C01EBE0F1E090819D7F9083209300023D
S11301902130310531F4E8E0F1E08081806880832A
S11301A007C0232B29F4E8E0F1E080818F77808376
S11301B0EBE0F1E08081826080838081877F8083AF
S11301C00895EBE0F1E080818860808380818D7FF9
S11301D0808382E0809300020895EBE0F1E0808167
S11301E08D7F808382E0809300020895EBE0F1E04C
S11301F080818F7E80838081846080838081806120
S113020080830895EBE0F1E080818F7E808380819C
S11302108B7F80838081806180830895EBE0F1E0AF
S113022080818F7E80830895EBE0F1E080818F7779
S11302308083808180628083808180688083089548
S1130240EBE0F1E080818F77808380818F7D8083F4
S11302508081806880830895EBE0F1E080818F776E
S11302608083089589B186FB882780F990E00895FA
S113027089B1817090E0089589B18695817090E08C
S1130280089589B18295817090E0089589B183FBC6
S1130290882780F990E0089589B182FB882780F946
S11302A090E00895EBE0F1E080818064808308951C
S11302B0EBE0F1E080818F7B80830895F89480ECFB
S11302C08093070184E0809368009FE390936D001E
S11302D08FEF84B995B990EA9AB99AEA9093690034
S11302E09FE09DBB80930A0178940895F89482E07E
S11302F084BD94E095BD80936E008CE987BD7894AD
S113030008951092850010928400089510926F0051
S1130310089582E080936F000895F894109280000D
S11303208DE0809381001092820010926F0085E826
S11303309EE1909389008093880078940895809139
S11303400202813009F0B3C080910302909104024B
S1130350019690930402809303028091030290918A
S11303600402853B910508F08CC085B1805885B99D
S11303701F9B46C0E091180285B1807885B98DEC49
S1130380E89F812D1124869586958695880F982F50
S1130390990F990F890FE81B8E2F90E08A309105F1
S11303A068F5FC01EE58FF4F0C94520785B18F633A
S11303B085B9089585B1866085B9089585B18B6541
S11303C085B9089585B18F6485B9089585B1866628
S11303D085B9089585B18D6685B9089585B18D6710
S11303E085B9089585B1876085B9089585B18F670A
S11303F085B9089585B1876685B908952E9A0895BB
S11304008091180295B1907895B9EDEC8E9F812D6D
S11304101124E82FE695E695E6958E2F90E08A3034
S1130420910568F5FC01E458FF4F0C94520785B11F
S11304308F6385B9089585B1866085B9089585B1BE
S11304408B6585B9089585B18F6485B9089585B1A3
S1130450866685B9089585B18D6685B9089585B197
S11304608D6785B9089585B1876085B9089585B18B
S11304708F6785B9089585B1876685B908952E9AE1
S113048008958091030290910402843B910508F43D
S113049099C015B88091030290910402883C91059B
S11304A009F090C01092040210920302089585B1DD
S11304B0805885B91F9B41C08091180295B19078EE
S11304C095B9EDEC8E9F812D1124E82FE695E695E4
S11304D0E6958E2F90E08A30910568F5FC01EA5785
S11304E0FF4F0C94520785B18F6385B9089585B188
S11304F0866085B9089585B18B6585B9089585B100
S11305008F6485B9089585B1866685B9089585B1E6
S11305108D6685B9089585B18D6785B9089585B1CE
S1130520876085B9089585B18F6785B9089585B1C8
S1130530876685B908952E9A0895E091180285B1C9
S1130540807885B98DECE89F812D11248695869558
S11305508695880F982F990F990F890FE81B8E2F76
S113056090E08A30910568F5FC01E057FF4F0C9448
S1130570520785B18F6385B9089585B1866085B9C1
S1130580089585B18B6585B9089585B18F6485B962
S1130590089585B1866685B9089585B18D6685B956
S11305A0089585B18D6785B9089585B1876085B94A
S11305B0089585B18F6785B9089585B1876685B932
S11305C008952E9A0895E7E0F1E0808180648083A5
S11305D0EAE0F1E08081816080835698EBE0F1E00D
S11305E080818E7F80830895559A579AE9E6F0E0DA
S11305F0808180688083EB9A5F980895F8940E94C4
S1130600E3020E94F40278940895EBE0F1E0808123
S11306108E7F8083A8E0B1E08C9180648C9380818C
S1130620816080832FEF83ED90E3215080409040E0
S1130630E1F700C0000080818E7F808381E0809399
S11306401B0208955F985D985F9A2FEF8DE399E4FC
S1130650215080409040E1F700C000005F98109264
S11306601C020895EBE0F1E080818E7F808380910D
S11306701B028130A9F4E8E0F1E080818F7B808364
S1130680EBE0F1E08081816080834E9BFECF4E9948
S1130690FECFEBE0F1E080818E7F808310921B021D
S11306A00895EBE0F1E080818E7F808380911B02CE
S11306B0811116C0E8E0F1E0808180648083EBE082
S11306C0F1E08081816080834E9BFECF4E99FECF06
S11306D0EBE0F1E080818E7F808381E080931B02D8
S11306E0089581E08093070280911C02811103C068
S11306F05F985D9A5F9A0895EB98E39A10920602C8
S1130700109205028091070281110CC04D9903C01B
S113071010921C025F984D9B14C081E080931C02D0
S11307205F98089580910702813059F480931C02E8
S11307301092070280911C02813019F45F985D9831
S11307405F9A0895F894E89AE9E6F0E0808182607F
S11307508083EA9A8081806280835098519854986B
S11307605398E7E0F1E08081806480838081806831
S11307708083EAE0F1E0808184608083808180620C
S11307808083559A808181608083808182608083A8
S1130790808180618083808180688083579A808192
S11307A0886080837894089580E090E00E94C0007F
S11307B02FEF83ED90E3215080409040E1F700C09B
S11307C000000E94ED001092010208950E940201AF
S11307D02FEF84E39CE0215080409040E1F700C07B
S11307E000004999FECF0E940E0108950E94140151
S11307F02FEF89E698E1215080409040E1F700C056
S113080000000E9420012FEF84E39CE021508040EF
S11308109040E1F700C000004C99FECF0E942C01EB
S1130820089580910D0290910E02A0910F02B09153
S113083010020596A11DB11D80930D0290930E0226
S1130840A0930F02B0931002089560910D0270916D
S11308500E0280910F029091100228EC30E040E0EB
S113086050E00E943007653671058105910518F442
S11308700E94580108950E9452010895809109022E
S113088090910A02A0910B02B0910C0240910D02CA
S113089050910E0260910F0270911002C296A11D38
S11308A0B11D84179507A607B70708F069C08091A2
S11308B00D0290910E02A0910F02B091100280934C
S11308C0090290930A02A0930B02B0930C02809148
S11308D00002813029F058F1823009F44FC00895A4
S11308E080910102813061F480910802833029F4FF
S11308F080E090E00E94C00008950E94ED000895F9
S11309008091010281113CC080910102811104C0D7
S113091081E08093010202C01092010280910802DA
S1130920833071F580E090E00E94C00008958091CA
S1130930010281110CC080910802833029F481E006
S113094090E00E94C00008950E94ED0008958091F7
S113095001028130A9F480910102811104C081E077
S11309608093010202C01092010280910802833038
S113097039F480E090E00E94C00008958091010263
S113098008951F920F920FB60F9211242F933F9345
S11309904F935F936F937F938F939F93AF93BF9383
S11309A0EF93FF930E949F010E941104809117020C
S11309B0813011F40E9425040E9432019093220296
S11309C0809321020E94380190932602809325028D
S11309D00E943C0190932402809323020E944101CF
S11309E090931E0280931D020E9446019093200260
S11309F080931F020E944C01909328028093270247
S1130A00FF91EF91BF91AF919F918F917F916F91E2
S1130A105F914F913F912F910F900FBE0F901F90B8
S1130A2018951F920F920FB60F9211242F933F9394
S1130A304F935F936F937F938F939F93AF93BF93E2
S1130A40EF93FF9381E080931702809316020E9434
S1130A508601FF91EF91BF91AF919F918F917F910B
S1130A606F915F914F913F912F910F900FBE0F9017
S1130A701F9018951F920F920FB60F9211242F9367
S1130A803F934F935F936F937F938F939F93AF9312
S1130A90BF93EF93FF930E94FD06FF91EF91BF91E7
S1130AA0AF919F918F917F916F915F914F913F9102
S1130AB02F910F900FBE0F901F9018951F920F92B9
S1130AC00FB60F9211242F933F934F935F936F931D
S1130AD07F938F939F93AF93BF93EF93FF930E9462
S1130AE03E04809113029091140201969093140293
S1130AF080931302FF91EF91BF91AF919F918F91DA
S1130B007F916F915F914F913F912F910F900FBE05
S1130B100F901F9018951F920F920FB60F921124E9
S1130B202F933F934F935F936F937F938F939F93F1
S1130B30AF93BF93EF93FF938091110290911202B0
S1130B4001969093120280931102809108028330DF
S1130B5029F40E94F90684E0809308028091080237
S1130B60811103C081E080930802809108028630DD
S1130B7011F410920802FF91EF91BF91AF919F91F0
S1130B808F917F916F915F914F913F912F910F9032
S1130B900FBE0F901F9018951F920F920FB60F92D1
S1130BA011242F933F934F935F936F937F938F936E
S1130BB09F93AF93BF93EF93FF930E947C03FF91A6
S1130BC0EF91BF91AF919F918F917F916F915F91C1
S1130BD04F913F912F910F900FBE0F901F9018953A
S1130BE02FEF81EE94E0215080409040E1F700C067
S1130BF000000E945E010E94A2030E9476010E94EE
S1130C008D010E94FE020E9422030E9405030E949D
S1130C10E6030E94F6030E94D403D3E0C1E00F2E42
S1130C20F6E0FF2EF02D05E012E0E09108028E2F91
S1130C3090E08730910508F0D9C0FC01E656FF4FDB
S1130C400C94520710921602109217021092180276
S1130C50ECCF0E94510381E090E00E94C0000E940A
S1130C6002012FEF83ED90E3215080409040E1F7A3
S1130C7000C000000E9432030E9451031093080236
S1130C80D4CF0E9420012FEF84E39CE021508040C8
S1130C909040E1F700C000000E944101892B89F7D0
S1130CA00E942C010E94F6002FEF84E39CE0215067
S1130CB080409040E1F700C000000E943C01892B75
S1130CC089F70E940E010E9414012FEF84E39CE037
S1130CD0215080409040E1F700C000000E94410193
S1130CE0892B89F70E942C010E9402012FEF84E3D3
S1130CF09CE0215080409040E1F700C000000E9439
S1130D003C01892B89F70E940E012FEF84E39CE0BC
S1130D10215080409040E1F700C00000D0930802C9
S1130D2080910202882309F480CF0E9481010E94ED
S1130D3089011092020279CF0E94520180E090E072
S1130D400E94C0002FEF83ED90E32150804090403B
S1130D50E1F700C0000069CF80910102813039F4CD
S1130D60D093080280E090E00E94C0005ECF109211
S1130D7017020E94580180911602813011F4C09329
S1130D8015020E94E1002FEF84E39CE02150804093
S1130D909040E1F700C000000E9420014C99FECF72
S1130DA00E942C010093080240CF2FEF87EA91E6BE
S1130DB0215080409040E1F700C000000E94710380
S1130DC02FEF83ED90E3215080409040E1F700C085
S1130DD0000080911502813019F4F092080225CFA9
S1130DE0C093080222CFC09302021FCF10920802C0
S1130DF01CCF8FE380936D000895809118028F5F5C
S1130E008093180280910601809580FF05C0EDE66D
S1130E10F0E090819E7F908381FF05C0EDE6F0E0D5
S1130E2090819D7F908382FF05C0EDE6F0E0908184
S1130E309B7F908383FF05C0EDE6F0E09081977F70
S1130E40908384FF05C0EDE6F0E090819F7E90835F
S1130E5085FF05C0EDE6F0E080818F7D80830895F5
S1130E60A1E21A2EAA1BBB1BFD010DC0AA1FBB1FAA
S1130E70EE1FFF1FA217B307E407F50720F0A21B1C
S1130E80B30BE40BF50B661F771F881F991F1A9489
S1130E9069F760957095809590959B01AC01BD01B3
S1130EA0CF010895EE0FFF1F0590F491E02D0994F2
S1070EB0F894FFCFE0
S1050EB4020135
S9030000FC
